S011000068656C6C6F776F726C642E733139A7
S20500000013E7
S20500000100F9
S20500000200F8
S20500000300F7
S20500000413E3
S20500000500F5
S20500000600F4
S20500000700F3
S20500000813DF
S20500000900F1
S20500000A00F0
S20500000B00EF
S20500000C13DB
S20500000D00ED
S20500000E00EC
S20500000F00EB
S20500001013D7
S20500001100E9
S20500001200E8
S20500001300E7
S20500001413D3
S20500001500E5
S20500001600E4
S20500001700E3
S20500001813CF
S20500001900E1
S20500001A00E0
S20500001B00DF
S20500001C13CB
S20500001D00DD
S20500001E00DC
S20500001F00DB
S20500002013C7
S20500002100D9
S20500002200D8
S20500002300D7
S20500002413C3
S20500002500D5
S20500002600D4
S20500002700D3
S20500002813BF
S20500002900D1
S20500002A00D0
S20500002B00CF
S20500002C13BB
S20500002D00CD
S20500002E00CC
S20500002F00CB
S20500003013B7
S20500003100C9
S20500003200C8
S20500003300C7
S20500003413B3
S20500003500C5
S20500003600C4
S20500003700C3
S20500003813AF
S20500003900C1
S20500003A00C0
S20500003B00BF
S20500003C13AB
S20500003D00BD
S20500003E00BC
S20500003F00BB
S20500004013A7
S20500004100B9
S20500004200B8
S20500004300B7
S20500004413A3
S20500004500B5
S20500004600B4
S20500004700B3
S205000048139F
S20500004900B1
S20500004A00B0
S20500004B00AF
S20500004C139B
S20500004D00AD
S20500004E00AC
S20500004F00AB
S2050000501397
S20500005100A9
S20500005200A8
S20500005300A7
S2050000541393
S20500005500A5
S20500005600A4
S20500005700A3
S205000058138F
S20500005900A1
S20500005A00A0
S20500005B009F
S20500005C6F2F
S20500005D009D
S20500005E405C
S20500005F108B
S2050000606F2B
S2050000610099
S2050000628018
S2050000631186
S2050000646F27
S2050000650095
S205000066C0D4
S2050000671281
S2050000686F23
S2050000690091
S20500006A0090
S20500006B147B
S20500006C6F1F
S20500006D008D
S20500006E404C
S20500006F1576
S2050000706F1B
S2050000710089
S2050000720088
S205000073186F
S2050000746F17
S2050000750085
S2050000764044
S205000077166D
S2050000786F13
S2050000790081
S20500007A8000
S20500007B1A65
S20500007C6F0F
S20500007D007D
S20500007EC0BC
S20500007F1863
S2050000806F0B
S2050000810079
S205000082C0B8
S2050000830077
S2050000846F07
S2050000850075
S2050000864034
S2050000871B58
S2050000886F03
S2050000890071
S20500008A80F0
S20500008B1C53
S20500008C73FB
S20500008D105D
S20500008E501C
S20500008F303B
S20500009093D7
S2050000910069
S2050000920068
S2050000930067
S2050000941353
S20500009581E4
S2050000960064
S2050000970063
S20500009893CF
S20500009981E0
S20500009A0060
S20500009B005F
S20500009C134B
S20500009D82DB
S20500009E005C
S20500009F005B
S2050000A093C7
S2050000A182D7
S2050000A20058
S2050000A30057
S2050000A41343
S2050000A583D2
S2050000A60054
S2050000A70053
S2050000A893BF
S2050000A983CE
S2050000AA0050
S2050000AB004F
S2050000AC133B
S2050000AD84C9
S2050000AE004C
S2050000AF004B
S2050000B093B7
S2050000B184C5
S2050000B20048
S2050000B30047
S2050000B41333
S2050000B585C0
S2050000B60044
S2050000B70043
S2050000B893AF
S2050000B985BC
S2050000BA0040
S2050000BB003F
S2050000BC132B
S2050000BD86B7
S2050000BE003C
S2050000BF003B
S2050000C093A7
S2050000C186B3
S2050000C20038
S2050000C30037
S2050000C41323
S2050000C587AE
S2050000C60034
S2050000C70033
S2050000C8939F
S2050000C987AA
S2050000CA0030
S2050000CB002F
S2050000CC131B
S2050000CD88A5
S2050000CE002C
S2050000CF002B
S2050000D09397
S2050000D188A1
S2050000D20028
S2050000D30027
S2050000D41313
S2050000D5899C
S2050000D60024
S2050000D70023
S2050000D8938F
S2050000D98998
S2050000DA0020
S2050000DB001F
S2050000DC130B
S2050000DD8A93
S2050000DE001C
S2050000DF001B
S2050000E09387
S2050000E18A8F
S2050000E20018
S2050000E30017
S2050000E41303
S2050000E58B8A
S2050000E60014
S2050000E70013
S2050000E8937F
S2050000E98B86
S2050000EA0010
S2050000EB000F
S2050000EC13FB
S2050000ED8C81
S2050000EE000C
S2050000EF000B
S2050000F09377
S2050000F18C7D
S2050000F20008
S2050000F30007
S2050000F413F3
S2050000F58D78
S2050000F60004
S2050000F70003
S2050000F8936F
S2050000F98D74
S2050000FA0000
S2050000FB00FF
S2050000FC13EB
S2050000FD8E6F
S2050000FE00FC
S2050000FF00FB
S2050001009366
S2050001018E6A
S20500010200F7
S20500010300F6
S20500010413E2
S2050001058F65
S20500010600F3
S20500010700F2
S205000108935E
S2050001098F61
S20500010A00EF
S20500010B00EE
S20500010C17D6
S20500010D816B
S20500010E10DB
S20500010F00EA
S20500011013D6
S20500011101E7
S20500011241A6
S205000113EFF7
S20500011417CE
S2050001150DD7
S20500011610D3
S20500011700E2
S20500011813CE
S2050001190DD3
S20500011A4D92
S20500011B17C7
S20500011C9746
S20500011D0DCF
S20500011E10CB
S20500011F00DA
S2050001209346
S2050001218D4B
S2050001224D8A
S2050001231EB8
S2050001246372
S205000125587C
S205000126BD16
S20500012701D1
S20500012823AE
S20500012920B0
S20500012A0DC2
S20500012B00CE
S20500012C13BA
S20500012D0DBF
S20500012E4D7E
S20500012F00CA
S205000130E3E6
S205000131DCEC
S205000132AD1A
S205000133FFC7
S205000134EFD6
S20500013500C4
S20500013600C3
S205000137239F
S20500013813AE
S20500013905BB
S20500013A00BF
S20500013B00BE
S20500013C932A
S20500013D05B7
S20500013E10AB
S20500013F00BA
S205000140EFCA
S20500014110A8
S205000142C0F7
S2050001437244
S20500014413A2
S20500014505AF
S20500014600B3
S20500014700B2
S205000148931E
S20500014905AB
S20500014A00AF
S20500014B00AE
S20500014CEFBE
S20500014D00AC
S20500014E00AB
S20500014F3D6D
S2050001501396
S20500015104A4
S20500015205A2
S20500015300A6
S205000154EFB6
S2050001551094
S2050001561093
S20500015702A0
S205000158138E
S205000159059B
S20500015A049B
S20500015B009E
S20500015CEFAE
S20500015D108C
S20500015ED0CB
S20500015F0496
S2050001601386
S2050001610197
S2050001620196
S205000163FA9C
S2050001642372
S2050001652E66
S2050001661182
S205000167048E
S205000168EFA2
S2050001690090
S20500016A008F
S20500016B107E
S20500016C97F6
S20500016D008C
S20500016E008B
S20500016F008A
S20500017093F6
S2050001718008
S2050001724047
S205000173176F
S2050001746F16
S2050001750084
S205000176C0C3
S2050001774A38
S205000178136E
S205000179017F
S20500017A017E
S20500017BFA84
S20500017C235A
S20500017D2E4E
S20500017E116A
S20500017F0476
S205000180EF8A
S2050001810078
S20500018280F7
S2050001830E68
S20500018497DE
S2050001850074
S2050001860073
S2050001870072
S20500018893DE
S20500018980F0
S20500018AC0AF
S20500018B1559
S20500018C6FFE
S20500018D105C
S20500018E006B
S20500018F6901
S2050001901356
S2050001910167
S2050001920166
S205000193FA6C
S2050001942342
S2050001952E36
S2050001961152
S205000197045E
S205000198EF72
S2050001990060
S20500019A005F
S20500019B0D51
S20500019C97C6
S20500019D005C
S20500019E005B
S20500019F005A
S2050001A093C6
S2050001A180D8
S2050001A24017
S2050001A31442
S2050001A46FE6
S2050001A50054
S2050001A60053
S2050001A779D9
S2050001A8133E
S2050001A9014F
S2050001AA014E
S2050001ABFA54
S2050001AC232A
S2050001AD2E1E
S2050001AE113A
S2050001AF0446
S2050001B0EF5A
S2050001B10048
S2050001B280C7
S2050001B30B3B
S2050001B497AE
S2050001B50044
S2050001B60043
S2050001B70042
S2050001B893AE
S2050001B980C0
S2050001BAC07F
S2050001BB122C
S2050001BC6FCE
S2050001BD102C
S2050001BE003B
S2050001BF67D3
S2050001C01326
S2050001C10137
S2050001C20136
S2050001C3FA3C
S2050001C42312
S2050001C52E06
S2050001C61122
S2050001C7042E
S2050001C8EF42
S2050001C90030
S2050001CA002F
S2050001CB0A24
S2050001CC9796
S2050001CD002C
S2050001CE002B
S2050001CF002A
S2050001D09396
S2050001D180A8
S2050001D240E7
S2050001D31115
S2050001D46FB6
S2050001D51014
S2050001D680A3
S2050001D766BC
S2050001D8130E
S2050001D9011F
S2050001DA011E
S2050001DBFA24
S2050001DC23FA
S2050001DD2EEE
S2050001DE110A
S2050001DF0416
S2050001E0EF2A
S2050001E10018
S2050001E28097
S2050001E3080E
S2050001E4977E
S2050001E50014
S2050001E60013
S2050001E70012
S2050001E8937E
S2050001E98090
S2050001EAC04F
S2050001EB0FFF
S2050001EC6F9E
S2050001ED000C
S2050001EE40CB
S2050001EF7D8D
S2050001F013F6
S2050001F10107
S2050001F20106
S2050001F3FA0C
S2050001F423E2
S2050001F52ED6
S2050001F611F2
S2050001F704FE
S2050001F8EF12
S2050001F90000
S2050001FA00FF
S2050001FB07F7
S2050001FC9766
S2050001FD00FC
S2050001FE00FB
S2050001FF00FA
S2050002009365
S2050002018077
S20500020240B6
S2050002030EE7
S2050002046F85
S20500020510E3
S2050002068072
S205000207648D
S20500020813DD
S20500020901EE
S20500020A01ED
S20500020BFAF3
S20500020C23C9
S20500020D2EBD
S20500020E11D9
S20500020F04E5
S205000210EFF9
S20500021100E7
S2050002128066
S20500021305E0
S205000214974D
S20500021500E3
S20500021600E2
S20500021700E1
S205000218934D
S205000219805F
S20500021AC01E
S20500021B0CD1
S20500021C6F6D
S20500021D00DB
S20500021ED00A
S20500021F05D4
S20500022013C5
S20500022101D6
S20500022201D5
S205000223FADB
S20500022423B1
S2050002252EA5
S20500022611C1
S20500022704CD
S205000228EFE1
S20500022900CF
S20500022A00CE
S20500022B04C9
S20500022C9735
S20500022D00CB
S20500022E00CA
S20500022F00C9
S2050002309335
S2050002318047
S2050002324086
S2050002330BBA
S2050002346F55
S20500023510B3
S2050002368042
S205000237625F
S20500023813AD
S20500023901BE
S20500023A01BD
S20500023BFAC3
S20500023C2399
S20500023D2E8D
S20500023E11A9
S20500023F04B5
S205000240EFC9
S20500024100B7
S2050002428036
S20500024302B3
S205000244971D
S20500024500B3
S20500024600B2
S20500024700B1
S205000248931D
S205000249802F
S20500024AC0EE
S20500024B09A4
S20500024C6F3D
S20500024D00AB
S20500024ED0DA
S20500024F1891
S2050002501395
S20500025101A6
S20500025201A5
S205000253FAAB
S2050002542381
S2050002552E75
S2050002561191
S205000257049D
S205000258EFB1
S205000259009F
S20500025A009E
S20500025B019C
S20500025C9705
S20500025D009B
S20500025E009A
S20500025F0099
S2050002609305
S2050002618017
S2050002624056
S205000263088D
S2050002646F25
S2050002651083
S2050002660092
S2050002673F52
S205000268236D
S205000269206F
S20500026A315D
S20500026B008D
S20500026C2369
S20500026D2269
S20500026E4149
S20500026F0089
S2050002702365
S2050002712463
S2050002725135
S2050002730085
S2050002742361
S205000275265D
S2050002766121
S2050002770081
S205000278235D
S2050002792857
S20500027A710D
S20500027B007D
S20500027C2359
S20500027D2A51
S20500027EA1D9
S20500027F0079
S2050002802355
S2050002812C4B
S205000282B1C5
S2050002830075
S2050002842351
S2050002852E45
S205000286C1B1
S2050002870071
S205000288234D
S205000289204F
S20500028AD19D
S20500028B026B
S20500028C2349
S20500028D2249
S20500028EE189
S20500028F0267
S2050002902345
S2050002912443
S205000292F175
S2050002930263
S2050002942341
S205000295263D
S2050002960161
S205000297035E
S205000298233D
S2050002992837
S20500029A114D
S20500029B035A
S20500029C2339
S20500029D2A31
S20500029EC199
S20500029F0356
S2050002A02335
S2050002A12C2B
S2050002A2D185
S2050002A30352
S2050002A42331
S2050002A52E25
S2050002A6E171
S2050002A7034E
S2050002A8232D
S2050002A9202F
S2050002AAF15D
S2050002AB0548
S2050002AC73D9
S2050002AD2E1D
S2050002AE004A
S2050002AF7BCE
S2050002B0F355
S2050002B12E19
S2050002B21036
S2050002B37BCA
S2050002B473D1
S2050002B52F14
S2050002B62022
S2050002B77BC6
S2050002B8231D
S2050002B9221D
S2050002BAC17D
S2050002BB0538
S2050002BC2319
S2050002BD2417
S2050002BED169
S2050002BF0534
S2050002C02315
S2050002C12611
S2050002C2E155
S2050002C30530
S2050002C473C1
S2050002C52E05
S2050002C640F2
S2050002C77BB6
S2050002C8F33D
S2050002C92E01
S2050002CA50DE
S2050002CB7BB2
S2050002CC73B9
S2050002CD2FFC
S2050002CE60CA
S2050002CF7BAE
S2050002D02305
S2050002D128FF
S2050002D2C165
S2050002D30520
S2050002D42301
S2050002D52AF9
S2050002D6D151
S2050002D7051C
S2050002D823FD
S2050002D92CF3
S2050002DAE13D
S2050002DB0518
S2050002DC67B5
S2050002DD809B
S2050002DE001A
S2050002DF0019
S2050002E00315
S2050002E12EE9
S2050002E20115
S2050002E30510
S2050002E48391
S2050002E52EE5
S2050002E641D1
S2050002E7050C
S2050002E8030D
S2050002E92FE0
S2050002EA818D
S2050002EB0508
S2050002EC7399
S2050002ED10FB
S2050002EE4EBC
S2050002EF7B8E
S2050002F07395
S2050002F19077
S2050002F25EA8
S2050002F37B8A
S2050002F47391
S2050002F510F3
S2050002F66F93
S2050002F77B86
S2050002F803FD
S2050002F92ED1
S2050002FA41BD
S2050002FB04F9
S2050002FC8379
S2050002FD2ECD
S2050002FE8179
S2050002FF04F5
S20500030003F4
S2050003012FC7
S205000302C134
S20500030304F0
S2050003047380
S20500030510E2
S2050003060EE3
S2050003077B75
S205000308737C
S205000309905E
S20500030A1ECF
S20500030B7B71
S20500030C7378
S20500030D10DA
S20500030E2FBA
S20500030F7B6D
S2050003108364
S20500031121C5
S20500031201E4
S20500031300E4
S20500031403E0
S20500031522C0
S20500031641A0
S20500031700E0
S205000318835C
S20500031922BC
S20500031A815C
S20500031B00DC
S20500031C03D8
S20500031D23B7
S20500031EC118
S20500031F00D8
S2050003208354
S20500032123B3
S20500032201D4
S20500032301D3
S20500032403D0
S20500032525AD
S2050003264190
S20500032701CF
S205000328834C
S20500032925A9
S20500032A814C
S20500032B01CB
S20500032C03C8
S20500032D26A4
S20500032EC108
S20500032F01C7
S2050003308344
S20500033126A0
S20500033201C4
S20500033302C2
S20500033403C0
S205000335279B
S2050003364180
S20500033702BE
S205000338833C
S2050003392797
S20500033A813C
S20500033B02BA
S20500033C03B8
S20500033D2892
S20500033EC1F8
S20500033F02B6
S2050003408334
S205000341288E
S20500034201B4
S20500034303B1
S20500034403B0
S2050003452E84
S2050003464170
S20500034703AD
S205000348832C
S2050003492E80
S20500034A812C
S20500034B03A9
S20500034C03A8
S20500034D2F7B
S20500034EC1E8
S20500034F03A5
S2050003508324
S2050003512F77
S20500035201A4
S20500035304A0
S2050003548320
S2050003552082
S205000356C1E0
S205000357059B
S205000358138C
S205000359019D
S20500035A019C
S20500035B0696
S20500035C7328
S20500035D009A
S20500035E2079
S20500035F3068
S2050003606730
S2050003618016
S2050003620095
S2050003630094
S2050003641380
S2050003650191
S2050003660190
S205000367FF91
S205000368236C
S205000369226C
S20500036A91FC
S20500036B008C
S20500036CB7D4
S20500036D0783
S20500036E1079
S20500036F0088
S205000370B7D0
S2050003710482
S2050003721075
S2050003730084
S2050003742360
S2050003752062
S2050003762160
S205000377017F
S20500037893EC
S20500037987F7
S20500037A0776
S20500037B007C
S20500037C1368
S20500037D89F1
S20500037E0475
S20500037F0078
S2050003805B1C
S205000381B9BD
S205000382274E
S205000383056F
S2050003842350
S205000385244E
S20500038681F0
S2050003870070
S205000388234C
S2050003892648
S20500038A115C
S20500038B006C
S20500038C93D8
S20500038D84E6
S20500038E0465
S20500038F0068
S2050003901354
S2050003910462
S2050003920065
S2050003930064
S2050003946300
S2050003950A58
S2050003960958
S2050003970060
S2050003988BD4
S205000399A7B7
S20500039A4419
S20500039B005C
S20500039C1348
S20500039D0456
S20500039E1445
S20500039F0058
S2050003A0E770
S2050003A180D6
S2050003A2074E
S2050003A30054
S2050003A4E370
S2050003A51A38
S2050003A689C8
S2050003A7FE52
S2050003A8B798
S2050003A9044A
S2050003AA103D
S2050003AB004C
S2050003ACEF5C
S2050003ADF05A
S2050003AE5FEA
S2050003AFFB4D
S2050003B0B790
S2050003B1073F
S2050003B21035
S2050003B30044
S2050003B41330
S2050003B589B9
S2050003B6043D
S2050003B70040
S2050003B893AC
S2050003B987B7
S2050003BA0736
S2050003BB003C
S2050003BC5BE0
S2050003BDB981
S2050003BE2712
S2050003BF0533
S2050003C093A4
S2050003C184B2
S2050003C20431
S2050003C30034
S2050003C41320
S2050003C5042E
S2050003C60031
S2050003C70030
S2050003C863CC
S2050003C90A24
S2050003CA0924
S2050003CB002C
S2050003CC8BA0
S2050003CDA783
S2050003CE44E5
S2050003CF0028
S2050003D01314
S2050003D10422
S2050003D21411
S2050003D30024
S2050003D4E73C
S2050003D580A2
S2050003D6071A
S2050003D70020
S2050003D8E33C
S2050003D91A04
S2050003DA8994
S2050003DBFE1E
S2050003DC8398
S2050003DD20FA
S2050003DEC158
S2050003DF0018
S2050003E00314
S2050003E124F2
S2050003E28194
S2050003E30014
S2050003E48390
S2050003E524EE
S2050003E641D0
S2050003E70010
S2050003E8030C
S2050003E929E5
S2050003EA010C
S2050003EB000C
S2050003EC13F8
S2050003ED0109
S2050003EE0108
S2050003EF0107
S2050003F067A0
S2050003F18086
S2050003F20005
S2050003F30004
S2050003F40003
S2050003F50002
S2050003F60001
S2050003F70000
S2050003F800FF
S2050003F900FE
S2050003FA00FD
S2050003FB00FC
S2050003FC00FB
S2050003FD00FA
S2050003FE00F9
S2050003FF00F8
S20500040000F6
S20500040100F5
S20500040200F4
S20500040300F3
S20500040413DF
S20500040501F0
S20500040601EF
S205000407FDF2
S20500040823CB
S20500040926C7
S20500040A816B
S20500040B02E9
S20500040C13D7
S20500040D04E5
S20500040E01E7
S20500040F03E4
S20500041023C3
S2050004112EB7
S205000412A440
S205000413FCE7
S20500041423BF
S2050004152CB5
S205000416B42C
S205000417FCE3
S20500041823BB
S2050004192AB3
S20500041AC418
S20500041BFCDF
S20500041CB723
S20500041D8752
S20500041E10C8
S20500041F1ABD
S2050004209343
S20500042106CF
S20500042204D0
S205000423FFD4
S20500042403CF
S205000425A72A
S205000426C60A
S205000427FED1
S20500042803CB
S20500042927A6
S20500042A07C5
S20500042B00CB
S20500042C23A7
S20500042DA029
S20500042EE7E1
S20500042F00C7
S2050004309333
S20500043107BE
S20500043210B4
S20500043300C3
S205000434239F
S205000435269B
S205000436F4CC
S205000437FEC1
S2050004386F4F
S20500043900BD
S20500043A407C
S20500043B01BA
S20500043C13A7
S20500043D07B2
S20500043E04B4
S20500043FFFB8
S2050004408333
S205000441278E
S205000442C7ED
S205000443FFB4
S205000444931F
S205000445872A
S2050004461799
S20500044700AF
S205000448238B
S2050004492687
S20500044AF4B8
S20500044BFEAD
S20500044C9317
S20500044D07A2
S20500044E04A4
S20500044FFFA8
S20500045003A3
S205000451A7FE
S205000452C7DD
S205000453FFA4
S205000454930F
S205000455079A
S205000456E0C0
S205000457019E
S205000458E3BB
S205000459D2CB
S20500045AE7B5
S20500045BFE9D
S20500045CB7E3
S20500045D8712
S20500045E1088
S20500045F1A7D
S2050004609303
S205000461870E
S205000462474D
S2050004630093
S20500046493FF
S205000465068B
S205000466048C
S205000467FF90
S205000468038B
S205000469A7E6
S20500046A8606
S20500046BFE8D
S20500046C0387
S20500046D2762
S20500046E0781
S20500046F0087
S2050004702363
S205000471A0E5
S205000472E79D
S2050004730083
S20500047493EF
S205000475077A
S2050004761070
S205000477007F
S205000478235B
S2050004792459
S20500047AF488
S20500047BFE7D
S20500047C6F0B
S20500047D0079
S20500047E4038
S20500047F0176
S2050004801363
S205000481076E
S2050004820470
S205000483FF74
S20500048483EF
S205000485274A
S20500048687E9
S205000487FF70
S20500048893DB
S20500048987E6
S20500048A1755
S20500048B006B
S20500048C2347
S20500048D2445
S20500048EF474
S20500048FFE69
S20500049093D3
S205000491075E
S2050004920460
S205000493FF64
S205000494035F
S205000495A7BA
S20500049687D9
S205000497FF60
S20500049893CB
S2050004990756
S20500049AE07C
S20500049B015A
S20500049CE377
S20500049DD287
S20500049EE771
S20500049FFE59
S2050004A0B79F
S2050004A187CE
S2050004A21044
S2050004A31A39
S2050004A493BF
S2050004A587CA
S2050004A687C9
S2050004A7004F
S2050004A893BB
S2050004A90647
S2050004AA0448
S2050004ABFF4C
S2050004AC0347
S2050004ADA7A2
S2050004AE4602
S2050004AFFE49
S2050004B00343
S2050004B1271E
S2050004B2073D
S2050004B30043
S2050004B4231F
S2050004B5A0A1
S2050004B6E759
S2050004B7003F
S2050004B8132B
S2050004B9003D
S2050004BA003C
S2050004BB003B
S2050004BC0337
S2050004BD2415
S2050004BEC177
S2050004BF0235
S2050004C01323
S2050004C10134
S2050004C20133
S2050004C30330
S2050004C467CB
S2050004C580B1
S2050004C60030
S2050004C7002F
S2050004C8131B
S2050004C9012C
S2050004CA012B
S2050004CBFE2D
S2050004CC2307
S2050004CD2EFB
S2050004CE81A7
S2050004CF0027
S2050004D01313
S2050004D10421
S2050004D20123
S2050004D30221
S2050004D4938F
S2050004D5071A
S2050004D61010
S2050004D7001F
S2050004D823FB
S2050004D926F7
S2050004DAF428
S2050004DBFE1D
S2050004DC6FAB
S2050004DD0019
S2050004DE40D8
S2050004DF0116
S2050004E01303
S2050004E1070E
S2050004E20410
S2050004E3FF14
S2050004E4838F
S2050004E527EA
S2050004E6C749
S2050004E7FF10
S2050004E8937B
S2050004E98786
S2050004EA17F5
S2050004EB000B
S2050004EC23E7
S2050004ED26E3
S2050004EEF414
S2050004EFFE09
S2050004F09373
S2050004F107FE
S2050004F20400
S2050004F3FF04
S2050004F403FF
S2050004F5A75A
S2050004F6C739
S2050004F7FF00
S2050004F8936B
S2050004F907F6
S2050004FA40BC
S2050004FB06F5
S2050004FCE317
S2050004FDD227
S2050004FEE711
S2050004FFFEF9
S205000500B73E
S205000501876D
S20500050210E3
S2050005031AD8
S205000504935E
S2050005058769
S205000506C728
S20500050700EE
S205000508836A
S205000509A745
S20500050A07E4
S20500050B00EA
S20500050C13D6
S20500050D8563
S20500050E07E0
S20500050F00E6
S20500051003E2
S20500051124C0
S205000512C122
S20500051301E1
S20500051413CE
S20500051501DF
S20500051601DE
S20500051702DC
S2050005186776
S205000519805C
S20500051A00DB
S20500051B00DA
S20500051C13C6
S20500051D01D7
S20500051E01D6
S20500051FFDD9
S20500052023B2
S20500052126AE
S20500052211C2
S20500052302D0
S20500052423AE
S20500052524AC
S205000526814E
S20500052702CC
S20500052813BA
S20500052904C8
S20500052A01CA
S20500052B03C7
S20500052CB712
S20500052D07C1
S20500052E7057
S20500052F4086
S20500053023A2
S2050005312E96
S205000532F4CF
S205000533FCC6
S205000534932E
S20500053507B9
S205000536C4FB
S205000537FDC1
S205000538239A
S2050005392696
S20500053AF4C7
S20500053BFEBC
S20500053CB702
S20500053D07B1
S20500053E9027
S20500053F4076
S2050005402392
S2050005412C88
S205000542F4BF
S205000543FCB6
S205000544931E
S20500054507A9
S205000546842B
S205000547FDB1
S205000548238A
S2050005492488
S20500054AF4B7
S20500054BFEAC
S20500054C2386
S20500054D2A7E
S20500054E04A3
S20500054FFCAA
S2050005509312
S205000551079D
S205000552445F
S205000553FDA5
S205000554237E
S205000555227E
S205000556F4AB
S205000557FEA0
S205000558930A
S2050005590795
S20500055A0497
S20500055BFF9B
S20500055C0396
S20500055DA6F2
S20500055E4750
S20500055FFF97
S2050005609302
S205000561078D
S205000562048F
S205000563FF93
S205000564830E
S205000565A5EB
S2050005668708
S205000567FF8F
S20500056893FA
S2050005690785
S20500056A0487
S20500056BFF8B
S20500056C0386
S20500056DA5E3
S20500056EC7C0
S20500056FFF87
S205000570EF96
S205000571F094
S2050005725F24
S205000573E999
S205000574EF92
S205000575F090
S2050005765F20
S205000577F589
S205000578235A
S205000579205C
S20500057AA4D7
S20500057BFE7C
S20500057C93E6
S20500057D0771
S20500057E0473
S20500057FFF77
S20500058083F2
S205000581A5CF
S205000582076C
S205000583FF73
S205000584B7BA
S2050005850769
S205000586105F
S205000587006E
S205000588135A
S20500058985E7
S20500058A0764
S20500058B006A
S20500058CEF7A
S20500058D1058
S20500058E0067
S20500058F0561
S20500059093D2
S205000591075D
S2050005920063
S2050005930062
S205000594134E
S20500059585DB
S2050005960758
S205000597005E
S20500059883DA
S205000599203C
S20500059AC19A
S20500059B0258
S20500059C0356
S20500059D2434
S20500059E81D6
S20500059F0254
S2050005A01342
S2050005A10153
S2050005A20152
S2050005A3034F
S2050005A467EA
S2050005A580D0
S2050005A6004F
S2050005A7004E
S2050005A8133A
S2050005A9014B
S2050005AA014A
S2050005ABFF4B
S2050005AC2326
S2050005AD2622
S2050005AE81C6
S2050005AF0046
S2050005B01332
S2050005B10440
S2050005B20142
S2050005B30141
S2050005B4B78A
S2050005B557E9
S2050005B6102F
S2050005B71A24
S2050005B893AA
S2050005B987B5
S2050005BA47F4
S2050005BB0139
S2050005BC1326
S2050005BD0731
S2050005BE0037
S2050005BF0432
S2050005C02312
S2050005C1A094
S2050005C2E74C
S2050005C30032
S2050005C4B77A
S2050005C557D9
S2050005C6101F
S2050005C71A14
S2050005C8939A
S2050005C987A5
S2050005CA47E4
S2050005CB002A
S2050005CC1316
S2050005CD0721
S2050005CE0027
S2050005CF081E
S2050005D02302
S2050005D1A084
S2050005D2E73C
S2050005D30022
S2050005D4B76A
S2050005D50719
S2050005D6100F
S2050005D7001E
S2050005D823FA
S2050005D98498
S2050005DA0714
S2050005DB2AF0
S2050005DC1306
S2050005DD0018
S2050005DE0017
S2050005DF0016
S2050005E00312
S2050005E124F0
S2050005E2C152
S2050005E30012
S2050005E413FE
S2050005E5010F
S2050005E6010E
S2050005E7010D
S2050005E867A6
S2050005E9808C
S2050005EA000B
S2050005EB000A
S2050005EC13F6
S2050005ED0107
S2050005EE0106
S2050005EFFF07
S2050005F023E2
S2050005F126DE
S2050005F28182
S2050005F30002
S2050005F413EE
S2050005F504FC
S2050005F601FE
S2050005F701FD
S2050005F8B746
S2050005F957A5
S2050005FA10EB
S2050005FB1AE0
S2050005FC9366
S2050005FD8771
S2050005FE47B0
S2050005FF00F6
S20500060013E1
S20500060107EC
S20500060200F2
S20500060308E9
S20500060423CD
S205000605A04F
S205000606E707
S20500060700ED
S205000608B735
S20500060907E4
S20500060A10DA
S20500060B00E9
S20500060C23C5
S20500060D8463
S20500060E07DF
S20500060F2ABB
S20500061013D1
S20500061100E3
S20500061200E2
S20500061300E1
S20500061403DD
S20500061524BB
S205000616C11D
S20500061700DD
S20500061813C9
S20500061901DA
S20500061A01D9
S20500061B01D8
S20500061C6771
S20500061D8057
S20500061E00D6
S20500061F00D5
S20500062013C1
S20500062101D2
S20500062201D1
S205000623FED3
S20500062423AD
S2050006252EA1
S20500062611BD
S20500062700CD
S20500062823A9
S2050006292C9F
S20500062A8149
S20500062B00C9
S20500062C13B5
S20500062D04C3
S20500062E01C5
S20500062F02C3
S205000630B70D
S205000631576C
S20500063210B2
S2050006331AA7
S205000634932D
S2050006358738
S205000636C7F7
S20500063700BD
S2050006388339
S205000639A714
S20500063A07B3
S20500063B00B9
S20500063C2395
S20500063D2691
S20500063EF4C2
S20500063FFEB7
S20500064013A1
S20500064107AC
S20500064204AE
S205000643FFB2
S205000644832D
S2050006452788
S205000646C7E7
S205000647FFAE
S2050006489319
S205000649F7B4
S20500064A07A3
S20500064B02A7
S20500064C6345
S20500064D8C1B
S20500064E079F
S20500064F00A5
S205000650B7ED
S205000651079C
S2050006521092
S20500065300A1
S205000654138D
S2050006550798
S205000656801E
S205000657039A
S205000658A3F9
S2050006598615
S20500065AE7B3
S20500065B2A6F
S20500065CEFA9
S20500065DF0A7
S20500065E1F77
S20500065FF99C
S2050006606F25
S2050006610093
S205000662C0D2
S2050006632071
S205000664137D
S2050006650788
S205000666048A
S205000667FF8E
S2050006688309
S2050006692764
S20500066AC7C3
S20500066BFF8A
S20500066C93F5
S20500066DF790
S20500066E077F
S20500066F087D
S2050006706321
S2050006719EE5
S205000672077B
S2050006731A67
S205000674B7C9
S2050006750778
S205000676106E
S205000677007D
S20500067883F9
S205000679C7B4
S20500067A87F3
S20500067B2A4F
S20500067C93E5
S20500067DF780
S20500067EF77F
S20500067F0F66
S2050006806311
S205000681B0C3
S205000682274B
S2050006830C65
S205000684B7B9
S2050006850768
S205000686105E
S205000687006D
S20500068883E9
S205000689C7A4
S20500068AB7B3
S20500068B2A3F
S20500068C1355
S20500068DF770
S20500068EF76F
S20500068F0F56
S205000690B7AD
S205000691075C
S2050006921052
S2050006930061
S20500069483DD
S205000695C798
S205000696C797
S2050006972A33
S20500069893C9
S205000699F764
S20500069AF763
S20500069B0F4A
S20500069C63F5
S20500069D7ADD
S20500069EF75F
S20500069F0451
S2050006A0B79D
S2050006A157FC
S2050006A21042
S2050006A31A37
S2050006A4133D
S2050006A587C8
S2050006A60747
S2050006A7014C
S2050006A8B795
S2050006A90744
S2050006AA103A
S2050006AB0049
S2050006AC83C5
S2050006ADC780
S2050006AEB78F
S2050006AF2A1B
S2050006B093B1
S2050006B1F74C
S2050006B2F74B
S2050006B30F32
S2050006B493AD
S2050006B586B9
S2050006B61727
S2050006B7003D
S2050006B81329
S2050006B9F645
S2050006BAF644
S2050006BB0F2A
S2050006BCB781
S2050006BD0631
S2050006BE1026
S2050006BF0035
S2050006C0A391
S2050006C185AE
S2050006C2C66C
S2050006C32A07
S2050006C4939D
S2050006C586A9
S2050006C60727
S2050006C7002D
S2050006C8B775
S2050006C90724
S2050006CA101A
S2050006CB0029
S2050006CC9395
S2050006CD87A0
S2050006CE879F
S2050006CF28FD
S2050006D0B371
S2050006D1879C
S2050006D2F62C
S2050006D30021
S2050006D4839D
S2050006D5C758
S2050006D60717
S2050006D7001D
S2050006D823F9
S2050006D920FB
S2050006DAF723
S2050006DB0019
S2050006DCB761
S2050006DD57C0
S2050006DE1006
S2050006DF1AFB
S2050006E09381
S2050006E1878C
S2050006E247CB
S2050006E30110
S2050006E413FD
S2050006E50708
S2050006E6000E
S2050006E7010C
S2050006E823E9
S2050006E9A06B
S2050006EAE723
S2050006EB0009
S2050006EC6F99
S2050006ED0007
S2050006EE0006
S2050006EF18ED
S2050006F0B74D
S2050006F107FC
S2050006F210F2
S2050006F30001
S2050006F4837D
S2050006F5C738
S2050006F69767
S2050006F72AD3
S2050006F89369
S2050006F9F704
S2050006FAF703
S2050006FB0FEA
S2050006FC6395
S2050006FD8671
S2050006FE07EF
S2050006FF00F5
S205000700EF04
S205000701F002
S2050007029F52
S205000703EA06
S2050007046F80
S20500070500EE
S205000706806D
S20500070716D6
S205000708B734
S20500070907E3
S20500070A10D9
S20500070B00E8
S20500070C13D4
S20500070D07DF
S20500070E10D5
S20500070F00E4
S20500071023C0
S205000711855D
S205000712E7FA
S2050007132AB6
S205000714B728
S2050007155787
S20500071610CD
S2050007171AC2
S2050007189348
S2050007198753
S20500071A4792
S20500071B00D8
S20500071C13C4
S20500071D07CF
S20500071E00D5
S20500071F08CC
S20500072023B0
S205000721A032
S205000722E7EA
S20500072300D0
S205000724B718
S2050007255777
S20500072610BD
S2050007271AB2
S2050007289338
S2050007298743
S20500072A4782
S20500072B01C7
S20500072C13B4
S20500072D07BF
S20500072E00C5
S20500072F08BC
S20500073023A0
S205000731A022
S205000732E7DA
S20500073300C0
S205000734B708
S20500073507B7
S20500073610AD
S20500073700BC
S2050007382398
S2050007398436
S20500073A07B2
S20500073B2A8E
S20500073C6F48
S20500073D00B6
S20500073E00B5
S20500073F13A1
S205000740B7FC
S20500074107AB
S20500074210A1
S20500074300B0
S205000744832C
S205000745C7E7
S2050007468726
S2050007472A82
S2050007489318
S205000749F7B3
S20500074AF7B2
S20500074B0F99
S20500074C6344
S20500074DB0F6
S20500074E178E
S20500074F1292
S205000750B7EC
S205000751079B
S2050007521091
S20500075300A0
S205000754831C
S205000755C7D7
S205000756E7B6
S2050007572A72
S2050007589308
S205000759F7A3
S20500075AF7A2
S20500075B0F89
S20500075C6334
S20500075D880E
S20500075E078E
S20500075F0094
S205000760B7DC
S205000761078B
S2050007621081
S2050007630090
S205000764236C
S2050007658707
S2050007660786
S2050007672A62
S2050007686F1C
S205000769008A
S20500076A4049
S20500076B0484
S20500076CB7D0
S20500076D077F
S20500076E1075
S20500076F0084
S2050007708300
S205000771C7BB
S205000772B7CA
S2050007732A56
S20500077493EC
S205000775F787
S205000776F786
S2050007770F6D
S2050007781368
S20500077987F3
S20500077A1762
S20500077B0078
S20500077C93E4
S20500077D7600
S20500077EF77E
S20500077F0F65
S205000780373C
S205000781076B
S2050007821061
S2050007830070
S205000784A3CC
S2050007850569
S205000786D796
S2050007872A42
S20500078893D8
S20500078986E4
S20500078A0762
S20500078B0068
S20500078CB7B0
S20500078D570F
S20500078E1055
S20500078F1A4A
S20500079093D0
S20500079187DB
S20500079287DA
S2050007930060
S20500079483DC
S205000795A7B7
S2050007960756
S205000797005C
S2050007981348
S205000799F763
S20500079AF762
S20500079B0F49
S20500079CB7A0
S20500079D074F
S20500079E1045
S20500079F0054
S2050007A093C0
S2050007A187CB
S2050007A287CA
S2050007A32828
S2050007A4B39C
S2050007A587C7
S2050007A6F657
S2050007A7004C
S2050007A82328
S2050007A980CA
S2050007AAE762
S2050007AB0048
S2050007ACB790
S2050007AD073F
S2050007AE1035
S2050007AF0044
S2050007B083C0
S2050007B1C77B
S2050007B2B78A
S2050007B32A16
S2050007B4132C
S2050007B5F747
S2050007B6F746
S2050007B70F2D
S2050007B8B784
S2050007B90733
S2050007BA1029
S2050007BB0038
S2050007BC83B4
S2050007BDC76F
S2050007BEC76E
S2050007BF2A0A
S2050007C093A0
S2050007C1F73B
S2050007C2F73A
S2050007C30F21
S2050007C463CC
S2050007C57CB2
S2050007C6F736
S2050007C7002C
S2050007C8B774
S2050007C957D3
S2050007CA1019
S2050007CB1A0E
S2050007CC9394
S2050007CD879F
S2050007CE47DE
S2050007CF0123
S2050007D01310
S2050007D1071B
S2050007D20021
S2050007D3021E
S2050007D423FC
S2050007D5A07E
S2050007D6E736
S2050007D7001C
S2050007D86FAC
S2050007D9001A
S2050007DA40D9
S2050007DB090F
S2050007DCB760
S2050007DD070F
S2050007DE1005
S2050007DF0014
S2050007E08390
S2050007E1C74B
S2050007E2977A
S2050007E32AE6
S2050007E4937C
S2050007E5F717
S2050007E6F716
S2050007E70FFD
S2050007E863A8
S2050007E98684
S2050007EA0702
S2050007EB0008
S2050007ECEF18
S2050007EDF016
S2050007EEDF26
S2050007EFDB29
S2050007F06F94
S2050007F10002
S2050007F2C041
S2050007F307F9
S2050007F4B748
S2050007F507F7
S2050007F610ED
S2050007F700FC
S2050007F813E8
S2050007F907F3
S2050007FA10E9
S2050007FB00F8
S2050007FC23D4
S2050007FD8571
S2050007FEE70E
S2050007FF2ACA
S205000800B73B
S205000801579A
S20500080210E0
S2050008031AD5
S205000804935B
S2050008058766
S20500080647A5
S20500080700EB
S20500080813D7
S20500080907E2
S20500080A00E8
S20500080B08DF
S20500080C23C3
S20500080DA045
S20500080EE7FD
S20500080F00E3
S205000810B72B
S205000811578A
S20500081210D0
S2050008131AC5
S205000814934B
S2050008158756
S2050008164795
S20500081701DA
S20500081813C7
S20500081907D2
S20500081A00D8
S20500081B08CF
S20500081C23B3
S20500081DA035
S20500081EE7ED
S20500081F00D3
S205000820B71B
S20500082107CA
S20500082210C0
S20500082300CF
S20500082423AB
S2050008258449
S20500082607C5
S2050008272AA1
S2050008286F5B
S20500082900C9
S20500082A4088
S20500082B04C3
S20500082CB70F
S20500082D07BE
S20500082E10B4
S20500082F00C3
S205000830833F
S205000831C7FA
S2050008328739
S2050008332A95
S205000834932B
S205000835F7C6
S205000836F7C5
S2050008370FAC
S2050008386357
S205000839B801
S20500083A2791
S20500083B02B5
S20500083CB7FF
S20500083D07AE
S20500083E10A4
S20500083F00B3
S205000840832F
S205000841C7EA
S205000842B7F9
S2050008432A85
S205000844931B
S205000845F7B6
S205000846F7B5
S2050008470F9C
S2050008486347
S2050008499A0F
S20500084A07A1
S20500084B00A7
S20500084CB7EF
S20500084D079E
S20500084E1094
S20500084F00A3
S205000850138F
S205000851079A
S20500085200A0
S205000853029D
S205000854A3FB
S2050008558617
S205000856E7B5
S2050008572A71
S2050008586F2B
S2050008590099
S20500085A0098
S20500085B0196
S20500085CB7DF
S20500085D078E
S20500085E1084
S20500085F0093
S205000860137F
S205000861078A
S2050008620090
S205000863038C
S205000864A3EB
S2050008658607
S205000866E7A5
S2050008672A61
S205000868EF9B
S205000869F099
S20500086A1F69
S20500086BD4B3
S20500086CB7CF
S20500086D572E
S20500086E1074
S20500086F1A69
S20500087093EF
S20500087187FA
S2050008724739
S205000873017E
S2050008743747
S2050008755726
S205000876106C
S2050008771A61
S2050008781367
S2050008790772
S20500087A4731
S20500087B0176
S20500087C0373
S20500087D274E
S20500087E076D
S20500087F0073
S205000880333F
S205000881472A
S2050008820769
S205000883C0AF
S205000884234B
S205000885A0CD
S205000886E785
S205000887006B
S205000888B7B3
S2050008894722
S20500088A1058
S20500088B1A4D
S20500088C93D3
S20500088D87DE
S20500088EC79D
S20500088F0063
S205000890372B
S205000891471A
S2050008921050
S2050008931A45
S205000894134B
S2050008950756
S205000896C795
S205000897005B
S20500089883D7
S2050008992633
S20500089A0751
S20500089B0057
S20500089C371F
S20500089D074E
S20500089E80D4
S20500089F0053
S2050008A0331F
S2050008A1E76A
S2050008A2E66A
S2050008A3004F
S2050008A4232B
S2050008A5A0AD
S2050008A6E765
S2050008A7004B
S2050008A81337
S2050008A90049
S2050008AA0048
S2050008AB0047
S2050008AC83C3
S2050008AD2025
S2050008AEC183
S2050008AF0142
S2050008B0033F
S2050008B1241D
S2050008B281BF
S2050008B3013E
S2050008B4132B
S2050008B5013C
S2050008B6013B
S2050008B70239
S2050008B867D3
S2050008B980B9
S2050008BA0038
S2050008BB0037
S2050008BC1323
S2050008BD0134
S2050008BE0133
S2050008BFFD36
S2050008C0230F
S2050008C1260B
S2050008C281AF
S2050008C3022D
S2050008C4131B
S2050008C50429
S2050008C6012B
S2050008C70328
S2050008C82307
S2050008C92EFB
S2050008CAA484
S2050008CBFC2B
S2050008CC2303
S2050008CD26FF
S2050008CE0420
S2050008CFFE25
S2050008D06FB3
S2050008D10021
S2050008D240E0
S2050008D3021D
S2050008D4130B
S2050008D50716
S2050008D60418
S2050008D7FF1C
S2050008D88397
S2050008D927F2
S2050008DAC751
S2050008DBFE19
S2050008DC9383
S2050008DDD73E
S2050008DE17FD
S2050008DF0013
S2050008E023EF
S2050008E12EE3
S2050008E2F41C
S2050008E3FC13
S2050008E413FB
S2050008E50706
S2050008E60408
S2050008E7FF0C
S2050008E88387
S2050008E927E2
S2050008EAC741
S2050008EBFF08
S2050008EC9373
S2050008ED877E
S2050008EE17ED
S2050008EF0003
S2050008F023DF
S2050008F126DB
S2050008F2F40C
S2050008F3FE01
S2050008F413EB
S2050008F507F6
S2050008F604F8
S2050008F7FFFC
S2050008F88377
S2050008F927D2
S2050008FAC731
S2050008FBFEF9
S2050008FCE313
S2050008FDBC39
S2050008FE17DD
S2050008FFFCF7
S20500090013DE
S20500090107E9
S20500090204EB
S205000903FFEF
S205000904836A
S20500090527C5
S205000906C724
S205000907FFEB
S20500090813D6
S2050009098563
S20500090A07E0
S20500090B00E6
S20500090C03E2
S20500090D24C0
S20500090EC122
S20500090F02E0
S20500091013CE
S20500091101DF
S20500091201DE
S20500091303DB
S2050009146776
S205000915805C
S20500091600DB
S20500091700DA
S20500091813C6
S20500091901D7
S20500091A01D6
S20500091BFFD7
S20500091C23B2
S20500091D26AE
S20500091E8152
S20500091F00D2
S20500092013BE
S20500092104CC
S20500092201CE
S20500092301CD
S20500092413BA
S20500092500CC
S20500092600CB
S20500092700CA
S20500092803C6
S20500092924A4
S20500092AC106
S20500092B00C6
S20500092C13B2
S20500092D01C3
S20500092E01C2
S20500092F01C1
S205000930675A
S2050009318040
S20500093200BF
S20500093300BE
S20500093413AA
S20500093501BB
S20500093601BA
S205000937FEBC
S2050009382396
S2050009392E8A
S20500093A11A6
S20500093B00B6
S20500093C2392
S20500093D2C88
S20500093E8132
S20500093F00B2
S205000940139E
S20500094104AC
S20500094201AE
S20500094302AC
S205000944B7F6
S2050009451795
S205000946109B
S2050009471A90
S2050009489316
S2050009498721
S20500094A8720
S20500094B01A5
S20500094C8322
S20500094DA7FD
S20500094E079C
S20500094F00A2
S205000950138E
S205000951851B
S2050009520798
S205000953009E
S205000954EFAE
S205000955F0AC
S2050009569FFC
S205000957F6A4
S2050009581386
S2050009590791
S20500095A0592
S20500095B0096
S20500095CB7DE
S20500095D078D
S20500095E1083
S20500095F0092
S205000960137E
S2050009611779
S2050009622768
S205000963008E
S20500096493FA
S2050009658705
S2050009668704
S2050009671F6B
S205000968B3D6
S2050009690781
S20500096AF790
S20500096B0086
S20500096C8302
S20500096DA7DD
S20500096E077C
S20500096F0082
S205000970235E
S205000971265A
S205000972F48B
S205000973FE80
S205000974136A
S2050009750775
S2050009760477
S205000977FF7B
S20500097883F6
S2050009792751
S20500097AC7B0
S20500097BFF77
S20500097C6312
S20500097D88EC
S20500097E076C
S20500097F0072
S205000980135E
S2050009810769
S205000982046B
S205000983FF6F
S20500098483EA
S2050009852745
S205000986C7A4
S205000987FF6B
S205000988E782
S20500098980E8
S20500098A0760
S20500098B0066
S20500098CB7AE
S20500098D471D
S20500098E1053
S20500098F1A48
S20500099093CE
S20500099187D9
S205000992C798
S205000993005E
S2050009943726
S2050009954715
S205000996104B
S2050009971A40
S2050009981346
S2050009990751
S20500099AC790
S20500099B0056
S20500099C83D2
S20500099D262E
S20500099E074C
S20500099F0052
S2050009A0371A
S2050009A10749
S2050009A2004F
S2050009A3024C
S2050009A4331A
S2050009A5E765
S2050009A6E665
S2050009A7004A
S2050009A82326
S2050009A9A0A8
S2050009AAE760
S2050009AB0046
S2050009AC1332
S2050009AD0044
S2050009AE0043
S2050009AF0042
S2050009B083BE
S2050009B12020
S2050009B2C17E
S2050009B3013D
S2050009B4033A
S2050009B52418
S2050009B681BA
S2050009B70139
S2050009B81326
S2050009B90137
S2050009BA0136
S2050009BB0234
S2050009BC67CE
S2050009BD80B4
S2050009BE0033
S2050009BF0032
S2050009C0131E
S2050009C1012F
S2050009C2012E
S2050009C3FE30
S2050009C4230A
S2050009C52EFE
S2050009C681AA
S2050009C7002A
S2050009C81316
S2050009C90424
S2050009CA0126
S2050009CB0224
S2050009CCB76E
S2050009CD071D
S2050009CE1013
S2050009CF0022
S2050009D0839E
S2050009D1A779
S2050009D247D8
S2050009D32BF3
S2050009D423FA
S2050009D526F6
S2050009D6F427
S2050009D7FE1C
S2050009D8B762
S2050009D90711
S2050009DA1007
S2050009DB0016
S2050009DC8392
S2050009DDC74D
S2050009DE878C
S2050009DF2BE7
S2050009E0A36E
S2050009E1050B
S2050009E2F41B
S2050009E3FE10
S2050009E4838A
S2050009E547C5
S2050009E6B457
S2050009E7FE0C
S2050009E89376
S2050009E98781
S2050009EA17F0
S2050009EB0501
S2050009ECA362
S2050009ED05FF
S2050009EEF40F
S2050009EFFE04
S2050009F003FE
S2050009F147B9
S2050009F2B44B
S2050009F3FE00
S2050009F4936A
S2050009F507F5
S2050009F6C03B
S2050009F707F3
S2050009F86396
S2050009F9F008
S2050009FAE710
S2050009FB02F4
S2050009FC8372
S2050009FD47AD
S2050009FEB43F
S2050009FFFEF4
S205000A00935D
S205000A018768
S205000A0237B7
S205000A03F8F5
S205000A04A349
S205000A0505E6
S205000A06F4F6
S205000A07FEEB
S205000A089355
S205000A0906E1
S205000A0A04E2
S205000A0BFFE6
S205000A0C8361
S205000A0DA73C
S205000A0EC61C
S205000A0FFFE2
S205000A10934D
S205000A118758
S205000A1217C7
S205000A1300DD
S205000A1423B9
S205000A1526B5
S205000A16F4E6
S205000A17FEDB
S205000A18B721
S205000A1907D0
S205000A1A10C6
S205000A1B00D5
S205000A1C03D1
S205000A1D478C
S205000A1EB41E
S205000A1FFED3
S205000A2023AD
S205000A218C43
S205000A22E7E7
S205000A232AA3
S205000A24B715
S205000A2507C4
S205000A2610BA
S205000A2700C9
S205000A289335
S205000A2906C1
S205000A2A04C2
S205000A2BFFC6
S205000A2C03C1
S205000A2DA71C
S205000A2EC6FC
S205000A2FFFC2
S205000A30239D
S205000A31AA15
S205000A32E7D7
S205000A332A93
S205000A34B705
S205000A3507B4
S205000A3610AA
S205000A3700B9
S205000A388335
S205000A39A710
S205000A3A07AF
S205000A3B2B8A
S205000A3C13A1
S205000A3D872C
S205000A3E179B
S205000A3F00B1
S205000A40B7F9
S205000A4107A8
S205000A42109E
S205000A4300AD
S205000A442389
S205000A45A803
S205000A46E7C3
S205000A472A7F
S205000A48B7F1
S205000A494760
S205000A4A1096
S205000A4B1A8B
S205000A4C9311
S205000A4D871C
S205000A4EC7DB
S205000A4F00A1
S205000A503769
S205000A514758
S205000A52108E
S205000A531A83
S205000A541389
S205000A550794
S205000A56C7D3
S205000A570099
S205000A588315
S205000A592671
S205000A5A078F
S205000A5B0095
S205000A5C375D
S205000A5D078C
S205000A5E0092
S205000A5F2071
S205000A60335D
S205000A61E7A8
S205000A62E6A8
S205000A63008D
S205000A642369
S205000A65A0EB
S205000A66E7A3
S205000A670089
S205000A681375
S205000A690087
S205000A6A0086
S205000A6B0085
S205000A6C0381
S205000A6D245F
S205000A6EC1C1
S205000A6F0180
S205000A70136D
S205000A71017E
S205000A72017D
S205000A73027B
S205000A746715
S205000A7580FB
S205000A76007A
S205000A770079
S205000A781365
S205000A790176
S205000A7A0175
S205000A7BFE77
S205000A7C2351
S205000A7D2E45
S205000A7E81F1
S205000A7F0071
S205000A80135D
S205000A81046B
S205000A82016D
S205000A83026B
S205000A84B7B5
S205000A850764
S205000A86105A
S205000A870069
S205000A880365
S205000A89C7A0
S205000A8AD78F
S205000A8B2B3A
S205000A8C93D1
S205000A8D075C
S205000A8EF072
S205000A8F0160
S205000A9063FD
S205000A911A45
S205000A92F767
S205000A930657
S205000A94A3B9
S205000A950754
S205000A960456
S205000A97FE5B
S205000A986FE9
S205000A990057
S205000A9A4016
S205000A9B0550
S205000A9C0351
S205000A9D470C
S205000A9EF45E
S205000A9FFE53
S205000AA0B799
S205000AA10748
S205000AA2103E
S205000AA3004D
S205000AA41339
S205000AA51734
S205000AA61733
S205000AA70049
S205000AA893B5
S205000AA987C0
S205000AAA073F
S205000AAB2C19
S205000AACB391
S205000AAD073C
S205000AAEF74B
S205000AAF0041
S205000AB083BD
S205000AB1C778
S205000AB20737
S205000AB3003D
S205000AB463D9
S205000AB586B5
S205000AB60733
S205000AB70237
S205000AB8B781
S205000AB91720
S205000ABA1026
S205000ABB1A1B
S205000ABC93A1
S205000ABD87AC
S205000ABE87AB
S205000ABF0031
S205000AC037F9
S205000AC11718
S205000AC2101E
S205000AC31A13
S205000AC41319
S205000AC50724
S205000AC687A3
S205000AC70029
S205000AC80325
S205000AC92700
S205000ACA071F
S205000ACB0025
S205000ACC83A1
S205000ACD46DD
S205000ACEF42E
S205000ACFFE23
S205000AD0130D
S205000AD10619
S205000AD2100E
S205000AD3001D
S205000AD4B369
S205000AD51605
S205000AD6D644
S205000AD70019
S205000AD833E5
S205000AD967B0
S205000ADAD73F
S205000ADB0015
S205000ADC23F1
S205000ADDA073
S205000ADEE72B
S205000ADF0011
S205000AE0838D
S205000AE147C8
S205000AE2F41A
S205000AE3FE0F
S205000AE49379
S205000AE58784
S205000AE617F3
S205000AE70009
S205000AE8A365
S205000AE90700
S205000AEAF412
S205000AEBFE07
S205000AEC0301
S205000AED47BC
S205000AEEF40E
S205000AEFFE03
S205000AF0936D
S205000AF107F8
S205000AF2F00E
S205000AF301FC
S205000AF4E319
S205000AF5F407
S205000AF6E713
S205000AF7FAFF
S205000AF8B741
S205000AF907F0
S205000AFA10E6
S205000AFB00F5
S205000AFCA351
S205000AFD8E65
S205000AFE07EB
S205000AFF2AC7
S205000B006F80
S205000B0100EE
S205000B02806D
S205000B030AE2
S205000B04A348
S205000B0507E3
S205000B0604E5
S205000B07FEEA
S205000B086F78
S205000B0900E6
S205000B0AC025
S205000B0B07DD
S205000B0C03E0
S205000B0D479B
S205000B0EF4ED
S205000B0FFEE2
S205000B10B728
S205000B1107D7
S205000B1210CD
S205000B1300DC
S205000B1413C8
S205000B1517C3
S205000B1617C2
S205000B1700D8
S205000B189344
S205000B19874F
S205000B1A07CE
S205000B1B2CA8
S205000B1CB320
S205000B1D07CB
S205000B1EF7DA
S205000B1F00D0
S205000B20834C
S205000B21C707
S205000B2207C6
S205000B2300CC
S205000B246368
S205000B258A40
S205000B2607C2
S205000B2704C4
S205000B288344
S205000B29477F
S205000B2AF4D1
S205000B2BFEC6
S205000B2C378C
S205000B2D07BB
S205000B2E10B1
S205000B2F00C0
S205000B3013AC
S205000B3107B7
S205000B3207B6
S205000B332C90
S205000B349328
S205000B359723
S205000B3617A2
S205000B3700B8
S205000B38B304
S205000B3907AF
S205000B3AF7BE
S205000B3B00B4
S205000B3C03B0
S205000B3DC7EB
S205000B3E179A
S205000B3F00B0
S205000B40B7F8
S205000B4107A7
S205000B42109D
S205000B4300AC
S205000B448328
S205000B45C7E3
S205000B46D7D2
S205000B472B7D
S205000B486344
S205000B49188E
S205000B4AF7AE
S205000B4B02A2
S205000B4CB7EC
S205000B4D178B
S205000B4E1091
S205000B4F1A86
S205000B50930C
S205000B518717
S205000B528716
S205000B53009C
S205000B543764
S205000B551783
S205000B561089
S205000B571A7E
S205000B581384
S205000B59078F
S205000B5A870E
S205000B5B0094
S205000B5C0390
S205000B5D276B
S205000B5E078A
S205000B5F0090
S205000B60830C
S205000B614648
S205000B62F499
S205000B63FE8E
S205000B641378
S205000B650684
S205000B661079
S205000B670088
S205000B68B3D4
S205000B691670
S205000B6AD6AF
S205000B6B0084
S205000B6C93F0
S205000B6DC6BC
S205000B6EF68B
S205000B6FFF81
S205000B70334C
S205000B717707
S205000B72D7A6
S205000B73007C
S205000B742358
S205000B75A0DA
S205000B76E792
S205000B770078
S205000B7883F4
S205000B79472F
S205000B7AF481
S205000B7BFE76
S205000B7C93E0
S205000B7D87EB
S205000B7E175A
S205000B7F0070
S205000B80A3CC
S205000B810767
S205000B82F479
S205000B83FE6E
S205000B840368
S205000B854723
S205000B86F475
S205000B87FE6A
S205000B8893D4
S205000B89075F
S205000B8AF075
S205000B8B0163
S205000B8CE380
S205000B8DF072
S205000B8EE77A
S205000B8FF868
S205000B90B7A8
S205000B910757
S205000B92104D
S205000B93005C
S205000B9483D8
S205000B95C793
S205000B96D782
S205000B972B2D
S205000B9893C4
S205000B9987CF
S205000B9A173E
S205000B9B0054
S205000B9C1340
S205000B9DF75B
S205000B9EF75A
S205000B9F0F41
S205000BA0B798
S205000BA10747
S205000BA2103D
S205000BA3004C
S205000BA4A3A8
S205000BA58EBC
S205000BA6E762
S205000BA72A1E
S205000BA8B790
S205000BA947FF
S205000BAA1035
S205000BAB1A2A
S205000BAC93B0
S205000BAD87BB
S205000BAEC77A
S205000BAF0040
S205000BB03708
S205000BB147F7
S205000BB2102D
S205000BB31A22
S205000BB41328
S205000BB50733
S205000BB6C772
S205000BB70038
S205000BB883B4
S205000BB92610
S205000BBA072E
S205000BBB0034
S205000BBC37FC
S205000BBD072B
S205000BBE0031
S205000BBF80B0
S205000BC033FC
S205000BC1E747
S205000BC2E647
S205000BC3002C
S205000BC42308
S205000BC5A08A
S205000BC6E742
S205000BC70028
S205000BC81314
S205000BC90026
S205000BCA0025
S205000BCB0024
S205000BCC0320
S205000BCD24FE
S205000BCEC160
S205000BCF011F
S205000BD0130C
S205000BD1011D
S205000BD2011C
S205000BD3021A
S205000BD467B4
S205000BD5809A
S205000BD60019
S205000BD70018
S205000BD81304
S205000BD90115
S205000BDA0114
S205000BDBFE16
S205000BDC23F0
S205000BDD2EE4
S205000BDE1100
S205000BDF0010
S205000BE023EC
S205000BE12CE2
S205000BE2818C
S205000BE3000C
S205000BE413F8
S205000BE50406
S205000BE60108
S205000BE70206
S205000BE8F314
S205000BE927DF
S205000BEA10F5
S205000BEB34D0
S205000BEC23E0
S205000BED26DC
S205000BEEF40D
S205000BEFFE02
S205000BF013EC
S205000BF107F7
S205000BF204F9
S205000BF3FFFD
S205000BF48378
S205000BF527D3
S205000BF6C732
S205000BF7FFF9
S205000BF88374
S205000BF9A74F
S205000BFA07EE
S205000BFB00F4
S205000BFC23D0
S205000BFD24CE
S205000BFEF4FD
S205000BFFFEF2
S205000C00935B
S205000C0107E6
S205000C0204E8
S205000C03FFEC
S205000C0403E7
S205000C05A643
S205000C068761
S205000C07FFE8
S205000C0813D3
S205000C0907DE
S205000C0A04E0
S205000C0BFFE4
S205000C0C835F
S205000C0D25BC
S205000C0EC719
S205000C0FFFE0
S205000C10B727
S205000C1107D6
S205000C1210CC
S205000C1300DB
S205000C1413C7
S205000C158554
S205000C1607D1
S205000C1718BF
S205000C18EFE7
S205000C1900D5
S205000C1A5084
S205000C1B1CB7
S205000C1C13BF
S205000C1D05CC
S205000C1E10C0
S205000C1F00CF
S205000C20EFDF
S205000C2100CD
S205000C22903C
S205000C235873
S205000C2413B7
S205000C2501C8
S205000C2601C7
S205000C27FDCA
S205000C2823A3
S205000C29269F
S205000C2A8143
S205000C2B02C1
S205000C2C13AF
S205000C2D04BD
S205000C2E01BF
S205000C2F03BC
S205000C30239B
S205000C312E8F
S205000C32A418
S205000C33FCBF
S205000C349327
S205000C3506B3
S205000C3604B4
S205000C37FFB8
S205000C388333
S205000C39A70E
S205000C3AC6EE
S205000C3BFEB5
S205000C3C139F
S205000C3DD7DA
S205000C3E1799
S205000C3F00AF
S205000C40931B
S205000C4106A7
S205000C4204A8
S205000C43FFAC
S205000C448327
S205000C45A702
S205000C46C6E2
S205000C47FEA9
S205000C489313
S205000C49D7CE
S205000C4A277D
S205000C4B00A3
S205000C4CB3EF
S205000C4D079A
S205000C4EF7A9
S205000C4F009F
S205000C50237B
S205000C512677
S205000C52F4A8
S205000C53FE9D
S205000C541387
S205000C550792
S205000C560494
S205000C57FF98
S205000C588313
S205000C59276E
S205000C5AC7CD
S205000C5BFF94
S205000C5C93FF
S205000C5DD7BA
S205000C5E4749
S205000C5F008F
S205000C6093FB
S205000C610687
S205000C620488
S205000C63FF8C
S205000C640387
S205000C65A7E2
S205000C66C6C2
S205000C67FF88
S205000C68B3D3
S205000C69077E
S205000C6AF78D
S205000C6B0083
S205000C6C235F
S205000C6D265B
S205000C6EF48C
S205000C6FFE81
S205000C70136B
S205000C710776
S205000C720478
S205000C73FF7C
S205000C7483F7
S205000C752752
S205000C76C7B1
S205000C77FF78
S205000C7893E3
S205000C79D79E
S205000C7A87ED
S205000C7B0073
S205000C7C93DF
S205000C7D066B
S205000C7E046C
S205000C7FFF70
S205000C80036B
S205000C81A7C6
S205000C82C6A6
S205000C83FF6C
S205000C84B3B7
S205000C850762
S205000C86F771
S205000C870067
S205000C882343
S205000C89263F
S205000C8AF470
S205000C8BFE65
S205000C8C134F
S205000C8D075A
S205000C8E045C
S205000C8FFF60
S205000C9083DB
S205000C912736
S205000C92C795
S205000C93FF5C
S205000C9493C7
S205000C95D782
S205000C960751
S205000C970156
S205000C9893C3
S205000C99064F
S205000C9A0450
S205000C9BFF54
S205000C9C034F
S205000C9DA7AA
S205000C9EC68A
S205000C9FFF50
S205000CA0B39B
S205000CA10746
S205000CA2F755
S205000CA3004B
S205000CA42327
S205000CA52623
S205000CA6F454
S205000CA7FE49
S205000CA81333
S205000CA9073E
S205000CAA0440
S205000CABFF44
S205000CAC83BF
S205000CAD271A
S205000CAEC779
S205000CAFFF40
S205000CB093AB
S205000CB1D766
S205000CB23705
S205000CB3003B
S205000CB42317
S205000CB52613
S205000CB6F444
S205000CB7FE39
S205000CB893A3
S205000CB9062F
S205000CBA0430
S205000CBBFF34
S205000CBC83AF
S205000CBDA78A
S205000CBEC66A
S205000CBFFF30
S205000CC0939B
S205000CC19796
S205000CC21715
S205000CC3002B
S205000CC41317
S205000CC59792
S205000CC62701
S205000CC70027
S205000CC8B373
S205000CC9879E
S205000CCAE73D
S205000CCB0023
S205000CCC938F
S205000CCD061B
S205000CCE041C
S205000CCFFF20
S205000CD0031B
S205000CD1A776
S205000CD2C656
S205000CD3FE1D
S205000CD4B367
S205000CD50712
S205000CD6F721
S205000CD740D7
S205000CD823F3
S205000CD924F1
S205000CDAF420
S205000CDBFE15
S205000CDC13FF
S205000CDD070A
S205000CDE040C
S205000CDFFF10
S205000CE0838B
S205000CE127E6
S205000CE28785
S205000CE3FF0C
S205000CE49377
S205000CE58782
S205000CE667A1
S205000CE70007
S205000CE813F3
S205000CE9D72E
S205000CEA47BD
S205000CEB0003
S205000CEC936F
S205000CED06FB
S205000CEE04FC
S205000CEFFF00
S205000CF0837B
S205000CF1A756
S205000CF2C636
S205000CF3FFFC
S205000CF4B347
S205000CF507F2
S205000CF6F701
S205000CF700F7
S205000CF813E3
S205000CF98570
S205000CFA07ED
S205000CFB00F3
S205000CFC03EF
S205000CFD24CD
S205000CFEC12F
S205000CFF02ED
S205000D0013DA
S205000D0101EB
S205000D0201EA
S205000D0303E7
S205000D046782
S205000D058068
S205000D0600E7
S205000D0700E6
S205000D0813D2
S205000D0901E3
S205000D0A01E2
S205000D0BFEE4
S205000D0C23BE
S205000D0D2EB2
S205000D0E815E
S205000D0F00DE
S205000D1013CA
S205000D1104D8
S205000D1201DA
S205000D1302D8
S205000D1423B6
S205000D1526B2
S205000D16A433
S205000D17FED8
S205000D189342
S205000D1906CE
S205000D1A04CF
S205000D1BFFD3
S205000D1C03CE
S205000D1DA729
S205000D1EC609
S205000D1FFFCF
S205000D20B716
S205000D21A725
S205000D229932
S205000D2319B1
S205000D249336
S205000D258741
S205000D269730
S205000D27992D
S205000D283392
S205000D2907BD
S205000D2AF7CC
S205000D2B02C0
S205000D2C932E
S205000D2D06BA
S205000D2E04BB
S205000D2FFFBF
S205000D30833A
S205000D31A715
S205000D32C6F5
S205000D33FFBB
S205000D349326
S205000D35D7E1
S205000D3617A0
S205000D3700B6
S205000D383382
S205000D3907AD
S205000D3AF7BC
S205000D3B00B2
S205000D3C931E
S205000D3D06AA
S205000D3E04AB
S205000D3FFFAF
S205000D40832A
S205000D41A705
S205000D42C6E5
S205000D43FFAB
S205000D449316
S205000D45D7D1
S205000D463770
S205000D4700A6
S205000D48B3F2
S205000D49079D
S205000D4AF7AC
S205000D4B00A2
S205000D4C930E
S205000D4DD7C9
S205000D4EC7D8
S205000D4F019D
S205000D50237A
S205000D512676
S205000D52F4A7
S205000D53FE9C
S205000D54B7E2
S205000D550791
S205000D561087
S205000D570096
S205000D581382
S205000D59870D
S205000D5A870C
S205000D5B276B
S205000D5C93FE
S205000D5D068A
S205000D5E048B
S205000D5FFF8F
S205000D60830A
S205000D61A7E5
S205000D62C6C5
S205000D63FF8B
S205000D64B3D6
S205000D650781
S205000D66F790
S205000D670086
S205000D688302
S205000D69C7BD
S205000D6A077C
S205000D6B0082
S205000D6C136E
S205000D6D85FB
S205000D6E0778
S205000D6F007E
S205000D70037A
S205000D712458
S205000D72C1BA
S205000D730179
S205000D741366
S205000D750177
S205000D760176
S205000D770274
S205000D78670E
S205000D7980F4
S205000D7A0073
S205000D7B0072
S205000D7C135E
S205000D7D016F
S205000D7E016E
S205000D7FFE70
S205000D80234A
S205000D812E3E
S205000D82115A
S205000D83006A
S205000D842346
S205000D852C3C
S205000D8681E6
S205000D870066
S205000D881352
S205000D890460
S205000D8A0162
S205000D8B0260
S205000D8C233E
S205000D8D263A
S205000D8EA4BB
S205000D8FFE60
S205000D90134A
S205000D910755
S205000D920457
S205000D93FF5B
S205000D9483D6
S205000D952731
S205000D96C790
S205000D97FF57
S205000D9893C2
S205000D99F75D
S205000D9AF75C
S205000D9B0F43
S205000D9C133E
S205000D9D85CB
S205000D9E0748
S205000D9F004E
S205000DA0EF5E
S205000DA1004C
S205000DA2D07B
S205000DA33812
S205000DA41336
S205000DA50741
S205000DA60443
S205000DA7FF47
S205000DA883C2
S205000DA9271D
S205000DAAC77C
S205000DABFF43
S205000DAC132E
S205000DAD85BB
S205000DAE0738
S205000DAF003E
S205000DB083BA
S205000DB1201C
S205000DB2C17A
S205000DB30139
S205000DB40336
S205000DB52414
S205000DB681B6
S205000DB70135
S205000DB81322
S205000DB90133
S205000DBA0132
S205000DBB0230
S205000DBC67CA
S205000DBD80B0
S205000DBE002F
S205000DBF002E
S205000DC0131A
S205000DC1012B
S205000DC2012A
S205000DC3FE2C
S205000DC42306
S205000DC52EFA
S205000DC61116
S205000DC70026
S205000DC82302
S205000DC92CF8
S205000DCA81A2
S205000DCB0022
S205000DCC130E
S205000DCD041C
S205000DCE011E
S205000DCF021C
S205000DD023FA
S205000DD126F6
S205000DD2A477
S205000DD3FE1C
S205000DD423F6
S205000DD524F4
S205000DD6B463
S205000DD7FE18
S205000DD89382
S205000DD9060E
S205000DDA040F
S205000DDBFF13
S205000DDC838E
S205000DDDA769
S205000DDEC649
S205000DDFFF0F
S205000DE063AA
S205000DE1808C
S205000DE20704
S205000DE30406
S205000DE413F6
S205000DE50701
S205000DE60403
S205000DE7FF07
S205000DE88382
S205000DE927DD
S205000DEAC73C
S205000DEBFF03
S205000DEC837E
S205000DEDA759
S205000DEE07F8
S205000DEF00FE
S205000DF0936A
S205000DF106F6
S205000DF204F7
S205000DF3FFFB
S205000DF403F6
S205000DF5A751
S205000DF68671
S205000DF7FFF7
S205000DF813E2
S205000DF9777D
S205000DFAF7FC
S205000DFB0FE3
S205000DFC23CE
S205000DFD8070
S205000DFEE708
S205000DFF00EE
S205000E0013D9
S205000E0107E4
S205000E0204E6
S205000E03FFEA
S205000E048365
S205000E0527C0
S205000E06C71F
S205000E07FFE6
S205000E088361
S205000E09A73C
S205000E0A07DB
S205000E0B00E1
S205000E0C13CD
S205000E0D8758
S205000E0E17C7
S205000E0F00DD
S205000E109349
S205000E1106D5
S205000E1204D6
S205000E13FFDA
S205000E148355
S205000E15A730
S205000E16C610
S205000E17FFD6
S205000E1823B1
S205000E19A033
S205000E1AE7EB
S205000E1B00D1
S205000E1C6F61
S205000E1D00CF
S205000E1E804E
S205000E1F01CC
S205000E2013B9
S205000E2107C4
S205000E2204C6
S205000E23FFCA
S205000E248345
S205000E2527A0
S205000E26873F
S205000E27FFC6
S205000E28B311
S205000E29B70C
S205000E2A873B
S205000E2BEED3
S205000E2C13AD
S205000E2D853A
S205000E2E07B7
S205000E2F00BD
S205000E30EFCD
S205000E31F0CB
S205000E32DFDB
S205000E33F4C5
S205000E3413A5
S205000E3500B7
S205000E3600B6
S205000E3700B5
S205000E388331
S205000E392093
S205000E3AC1F1
S205000E3B01B0
S205000E3C03AD
S205000E3D248B
S205000E3E812D
S205000E3F01AC
S205000E401399
S205000E4101AA
S205000E4201A9
S205000E4302A7
S205000E446741
S205000E458027
S205000E4600A6
S205000E4700A5
S205000E481391
S205000E4901A2
S205000E4A01A1
S205000E4BFDA4
S205000E4C237D
S205000E4D2679
S205000E4E118D
S205000E4F029B
S205000E502379
S205000E512477
S205000E528119
S205000E530297
S205000E542375
S205000E552275
S205000E569105
S205000E570293
S205000E582371
S205000E592073
S205000E5A2171
S205000E5B038E
S205000E5C236D
S205000E5D2E61
S205000E5E315D
S205000E5F018C
S205000E602369
S205000E612C5F
S205000E624149
S205000E630188
S205000E641375
S205000E650483
S205000E660185
S205000E670382
S205000E682361
S205000E692E55
S205000E6AA4DE
S205000E6BFC85
S205000E6C235D
S205000E6D2C53
S205000E6EB4CA
S205000E6FFC81
S205000E702359
S205000E712A51
S205000E72C4B6
S205000E73FC7D
S205000E742355
S205000E75284F
S205000E76D4A2
S205000E77FC79
S205000E7893E1
S205000E79046F
S205000E7A0072
S205000E7B0071
S205000E7C135D
S205000E7D0A65
S205000E7E006E
S205000E7F026B
S205000E801359
S205000E810764
S205000E820466
S205000E83FE6B
S205000E8483E5
S205000E852740
S205000E86471F
S205000E87FF66
S205000E886301
S205000E895E05
S205000E8AF072
S205000E8B045D
S205000E8C134D
S205000E8D0956
S205000E8E005E
S205000E8F005D
S205000E9093C9
S205000E910754
S205000E920456
S205000E93FE5B
S205000E9483D5
S205000E95A9AE
S205000E9687CF
S205000E97FF56
S205000E986FE5
S205000E990053
S205000E9AC092
S205000E9B0051
S205000E9C133D
S205000E9D0946
S205000E9E1935
S205000E9F004D
S205000EA093B9
S205000EA189C2
S205000EA21931
S205000EA30049
S205000EA483C5
S205000EA5C780
S205000EA6093D
S205000EA70045
S205000EA8E361
S205000EA99AA9
S205000EAA073B
S205000EABFE43
S205000EAC132D
S205000EAD0738
S205000EAE043A
S205000EAFFE3F
S205000EB083B9
S205000EB12714
S205000EB247F3
S205000EB3FF3A
S205000EB463D5
S205000EB546F1
S205000EB6F93D
S205000EB70035
S205000EB82311
S205000EB92A09
S205000EBA042E
S205000EBBFC35
S205000EBC6FC1
S205000EBD002F
S205000EBE40EE
S205000EBF012C
S205000EC01319
S205000EC10724
S205000EC20426
S205000EC3FE2B
S205000EC483A5
S205000EC52700
S205000EC647DF
S205000EC7FF26
S205000EC8B371
S205000EC9879C
S205000ECA27FB
S205000ECB41E0
S205000ECC23FD
S205000ECD2AF5
S205000ECEF42A
S205000ECFFC21
S205000ED01309
S205000ED10714
S205000ED20416
S205000ED3FE1B
S205000ED48395
S205000ED527F0
S205000ED6070F
S205000ED7FF16
S205000ED89381
S205000ED9F71C
S205000EDA27EB
S205000EDB0011
S205000EDC63AD
S205000EDD848B
S205000EDE0707
S205000EDF000D
S205000EE013F9
S205000EE10A01
S205000EE2000A
S205000EE30306
S205000EE413F5
S205000EE50700
S205000EE60402
S205000EE7FE07
S205000EE88381
S205000EE927DC
S205000EEA07FB
S205000EEBFF02
S205000EECB34D
S205000EEDB748
S205000EEE17E7
S205000EEFFC01
S205000EF06399
S205000EF19665
S205000EF207F3
S205000EF306F3
S205000EF46F89
S205000EF500F7
S205000EF68076
S205000EF702F3
S205000EF89361
S205000EF905EE
S205000EFA0AE8
S205000EFB00F1
S205000EFC935D
S205000EFD07E8
S205000EFE04EA
S205000EFFFEEF
S205000F0003E8
S205000F01A545
S205000F02C722
S205000F03FFE9
S205000F04EFF8
S205000F05F0F6
S205000F06DF06
S205000F07EBF9
S205000F089350
S205000F09845E
S205000F0A14CD
S205000F0B00E0
S205000F0C13CC
S205000F0D07D7
S205000F0E04D9
S205000F0FFEDE
S205000F108358
S205000F1127B3
S205000F124792
S205000F13FFD9
S205000F149344
S205000F15874F
S205000F16F7DE
S205000F17FFD5
S205000F1823B0
S205000F192AA8
S205000F1AF4DD
S205000F1BFCD4
S205000F1C13BC
S205000F1D07C7
S205000F1E04C9
S205000F1FFECE
S205000F208348
S205000F2127A3
S205000F224782
S205000F23FFC9
S205000F24E3E4
S205000F254A7C
S205000F26F0D5
S205000F27FCC8
S205000F286F54
S205000F2900C2
S205000F2A4081
S205000F2B03BD
S205000F2C13AC
S205000F2D07B7
S205000F2E04B9
S205000F2FFEBE
S205000F308338
S205000F312793
S205000F328732
S205000F33FFB9
S205000F348334
S205000F35C7EF
S205000F3607AE
S205000F3700B4
S205000F389320
S205000F39852D
S205000F3A07AA
S205000F3B00B0
S205000F3C931C
S205000F3D07A7
S205000F3E04A9
S205000F3FFEAE
S205000F4003A8
S205000F41A505
S205000F42C7E2
S205000F43FFA9
S205000F44EFB8
S205000F45F0B6
S205000F46DFC6
S205000F47E7BD
S205000F489310
S205000F49841E
S205000F4A148D
S205000F4B00A0
S205000F4C138C
S205000F4D0797
S205000F4E0499
S205000F4FFE9E
S205000F508318
S205000F512773
S205000F528712
S205000F53FF99
S205000F549304
S205000F55870F
S205000F56177E
S205000F570094
S205000F582370
S205000F592C66
S205000F5AF49D
S205000F5BFC94
S205000F5C137C
S205000F5D0787
S205000F5E0489
S205000F5FFE8E
S205000F608308
S205000F612763
S205000F628702
S205000F63FF89
S205000F648304
S205000F65C7BF
S205000F66077E
S205000F670084
S205000F68E3A0
S205000F6992F0
S205000F6A077A
S205000F6BFC84
S205000F6C6F10
S205000F6D007E
S205000F6E80FD
S205000F6F027A
S205000F7093E8
S205000F710575
S205000F720A6F
S205000F730078
S205000F7493E4
S205000F75076F
S205000F760471
S205000F77FE76
S205000F780370
S205000F79A5CD
S205000F7AC7AA
S205000F7BFF71
S205000F7CEF80
S205000F7DF07E
S205000F7E5F0E
S205000F7FE488
S205000F8093D8
S205000F8184E6
S205000F821455
S205000F830068
S205000F841354
S205000F85075F
S205000F860461
S205000F87FE66
S205000F8883E0
S205000F89273B
S205000F8A471A
S205000F8BFF61
S205000F8C93CC
S205000F8D87D7
S205000F8EF766
S205000F8FFF5D
S205000F902338
S205000F912A30
S205000F92F465
S205000F93FC5C
S205000F941344
S205000F95074F
S205000F960451
S205000F97FE56
S205000F9883D0
S205000F99272B
S205000F9A470A
S205000F9BFF51
S205000F9CE36C
S205000F9D4A04
S205000F9EF05D
S205000F9FFC50
S205000FA093B8
S205000FA187C3
S205000FA20445
S205000FA30048
S205000FA41334
S205000FA585C1
S205000FA6073E
S205000FA70044
S205000FA883C0
S205000FA92022
S205000FAAC180
S205000FAB023E
S205000FAC033C
S205000FAD241A
S205000FAE81BC
S205000FAF023A
S205000FB083B8
S205000FB12416
S205000FB241F8
S205000FB30236
S205000FB40334
S205000FB5290D
S205000FB60134
S205000FB70232
S205000FB883B0
S205000FB92909
S205000FBAC170
S205000FBB012F
S205000FBC032C
S205000FBD2A04
S205000FBE81AC
S205000FBF012B
S205000FC01318
S205000FC10129
S205000FC20128
S205000FC30325
S205000FC467C0
S205000FC580A6
S205000FC60025
S205000FC70024
S205000FC81310
S205000FC90121
S205000FCA0120
S205000FCBF927
S205000FCC23FC
S205000FCD26F8
S205000FCE110C
S205000FCF0616
S205000FD023F8
S205000FD124F6
S205000FD28198
S205000FD30612
S205000FD423F4
S205000FD522F4
S205000FD69184
S205000FD7060E
S205000FD823F0
S205000FD920F2
S205000FDA21F0
S205000FDB0709
S205000FDC23EC
S205000FDD2EE0
S205000FDE31DC
S205000FDF0507
S205000FE013F8
S205000FE10406
S205000FE20108
S205000FE30701
S205000FE423E4
S205000FE526E0
S205000FE6A461
S205000FE7FA0A
S205000FE823E0
S205000FE924DE
S205000FEAB44D
S205000FEBFA06
S205000FEC23DC
S205000FED22DC
S205000FEEC439
S205000FEFFA02
S205000FF023D8
S205000FF120DA
S205000FF2D425
S205000FF3FAFE
S205000FF423D4
S205000FF52EC8
S205000FF6E411
S205000FF7F8FC
S205000FF823D0
S205000FF92CC6
S205000FFAF4FD
S205000FFBF8F8
S205000FFC935C
S205000FFD07E7
S205000FFE08E5
S205000FFF00EC
S205001000A347
S2050010010BDE
S205001002F4F4
S205001003F8EF
S2050010049353
S20500100509DC
S20500100600E4
S20500100700E3
S20500100813CF
S20500100909D8
S20500100A00E0
S20500100B00DF
S20500100C934B
S20500100D06D7
S20500100E04D8
S20500100FFEDD
S2050010108357
S205001011A732
S2050010128652
S205001013FCDB
S20500101423B3
S2050010152EA7
S205001016F4E0
S205001017FCD7
S20500101813BF
S20500101907CA
S20500101A04CC
S20500101BFED1
S20500101C834B
S20500101D27A6
S20500101E8745
S20500101FFCCF
S2050010206367
S2050010219E2B
S20500102207C1
S20500102302C5
S2050010249333
S20500102507BE
S20500102600C4
S20500102703C0
S205001028239F
S2050010290CB5
S20500102AF4CC
S20500102BFAC5
S20500102CA31B
S20500102D0CB1
S20500102E04B8
S20500102FFAC1
S2050010309327
S20500103107B2
S2050010328434
S205001033FBBC
S20500103413A3
S20500103507AE
S20500103604B0
S205001037FEB5
S205001038832F
S205001039268B
S20500103A8729
S20500103BFBB4
S20500103C139B
S20500103D07A6
S20500103E04A8
S20500103FFEAD
S20500104003A7
S2050010412683
S205001042C7E1
S205001043FBAC
S2050010449313
S2050010458520
S205001046079D
S20500104700A3
S205001048930F
S205001049079A
S20500104A049C
S20500104BFEA1
S20500104C039B
S20500104DA5F8
S20500104EC7D5
S20500104FFC9F
S205001050EFAB
S205001051F0A9
S2050010529FF9
S205001053DFB8
S2050010549303
S205001055078E
S205001056058F
S2050010570093
S2050010586F23
S2050010590091
S20500105AC0D0
S20500105B1877
S20500105C93FB
S20500105D0687
S20500105E0488
S20500105FFE8D
S2050010608307
S205001061A7E2
S2050010620682
S205001063FC8B
S2050010646323
S20500106588FD
S205001066077D
S2050010670281
S205001068136F
S205001069077A
S20500106A047C
S20500106BFE81
S20500106C83FB
S20500106D2756
S20500106E4735
S20500106FFC7F
S2050010706317
S205001071B2C7
S205001072A7D1
S2050010730275
S20500107493E3
S205001075066F
S2050010760470
S205001077FE75
S20500107883EF
S205001079A7CA
S20500107A86EA
S20500107BFC73
S20500107C630B
S20500107DDC91
S20500107E0765
S20500107F006B
S20500108093D7
S2050010810960
S2050010821058
S2050010830067
S2050010841353
S205001085075E
S2050010860460
S205001087FE65
S20500108883DF
S205001089273A
S20500108A87D9
S20500108BFC63
S20500108CB3AB
S20500108D0756
S20500108EF06C
S20500108F401B
S2050010902337
S2050010912E2B
S205001092F464
S205001093FC5B
S20500109493C3
S2050010950451
S20500109684D0
S205001097FB58
S20500109893BF
S20500109984CD
S20500109AF45C
S20500109B014E
S20500109C232B
S20500109D80CD
S20500109E0448
S20500109F004B
S2050010A093B7
S2050010A10742
S2050010A20444
S2050010A3FE49
S2050010A40343
S2050010A5A79E
S2050010A647FD
S2050010A7FC47
