S011000068656C6C6F776F726C642E733139A7
S20500000013E7
S20500000100F9
S20500000200F8
S20500000300F7
S20500000413E3
S20500000500F5
S20500000600F4
S20500000700F3
S20500000813DF
S20500000900F1
S20500000A00F0
S20500000B00EF
S20500000C13DB
S20500000D00ED
S20500000E00EC
S20500000F00EB
S20500001013D7
S20500001100E9
S20500001200E8
S20500001300E7
S20500001413D3
S20500001500E5
S20500001600E4
S20500001700E3
S20500001813CF
S20500001900E1
S20500001A00E0
S20500001B00DF
S20500001C13CB
S20500001D00DD
S20500001E00DC
S20500001F00DB
S20500002013C7
S20500002100D9
S20500002200D8
S20500002300D7
S20500002413C3
S20500002500D5
S20500002600D4
S20500002700D3
S20500002813BF
S20500002900D1
S20500002A00D0
S20500002B00CF
S20500002C13BB
S20500002D00CD
S20500002E00CC
S20500002F00CB
S20500003013B7
S20500003100C9
S20500003200C8
S20500003300C7
S20500003413B3
S20500003500C5
S20500003600C4
S20500003700C3
S20500003813AF
S20500003900C1
S20500003A00C0
S20500003B00BF
S20500003C13AB
S20500003D00BD
S20500003E00BC
S20500003F00BB
S20500004013A7
S20500004100B9
S20500004200B8
S20500004300B7
S20500004413A3
S20500004500B5
S20500004600B4
S20500004700B3
S205000048139F
S20500004900B1
S20500004A00B0
S20500004B00AF
S20500004C139B
S20500004D00AD
S20500004E00AC
S20500004F00AB
S2050000501397
S20500005100A9
S20500005200A8
S20500005300A7
S2050000541393
S20500005500A5
S20500005600A4
S20500005700A3
S205000058138F
S20500005900A1
S20500005A00A0
S20500005B009F
S20500005C6F2F
S20500005D009D
S20500005E405C
S20500005F108B
S2050000606F2B
S2050000610099
S2050000628018
S2050000631186
S2050000646F27
S2050000650095
S205000066C0D4
S2050000671281
S2050000686F23
S2050000690091
S20500006A0090
S20500006B147B
S20500006C6F1F
S20500006D008D
S20500006E404C
S20500006F1576
S2050000706F1B
S2050000710089
S2050000720088
S205000073186F
S2050000746F17
S2050000750085
S2050000764044
S205000077166D
S2050000786F13
S2050000790081
S20500007A8000
S20500007B1A65
S20500007C6F0F
S20500007D007D
S20500007EC0BC
S20500007F1863
S2050000806F0B
S2050000810079
S205000082C0B8
S2050000830077
S2050000846F07
S2050000850075
S2050000864034
S2050000871B58
S2050000886F03
S2050000890071
S20500008A80F0
S20500008B1C53
S20500008C73FB
S20500008D105D
S20500008E501C
S20500008F303B
S20500009093D7
S2050000910069
S2050000920068
S2050000930067
S2050000941353
S20500009581E4
S2050000960064
S2050000970063
S20500009893CF
S20500009981E0
S20500009A0060
S20500009B005F
S20500009C134B
S20500009D82DB
S20500009E005C
S20500009F005B
S2050000A093C7
S2050000A182D7
S2050000A20058
S2050000A30057
S2050000A41343
S2050000A583D2
S2050000A60054
S2050000A70053
S2050000A893BF
S2050000A983CE
S2050000AA0050
S2050000AB004F
S2050000AC133B
S2050000AD84C9
S2050000AE004C
S2050000AF004B
S2050000B093B7
S2050000B184C5
S2050000B20048
S2050000B30047
S2050000B41333
S2050000B585C0
S2050000B60044
S2050000B70043
S2050000B893AF
S2050000B985BC
S2050000BA0040
S2050000BB003F
S2050000BC132B
S2050000BD86B7
S2050000BE003C
S2050000BF003B
S2050000C093A7
S2050000C186B3
S2050000C20038
S2050000C30037
S2050000C41323
S2050000C587AE
S2050000C60034
S2050000C70033
S2050000C8939F
S2050000C987AA
S2050000CA0030
S2050000CB002F
S2050000CC131B
S2050000CD88A5
S2050000CE002C
S2050000CF002B
S2050000D09397
S2050000D188A1
S2050000D20028
S2050000D30027
S2050000D41313
S2050000D5899C
S2050000D60024
S2050000D70023
S2050000D8938F
S2050000D98998
S2050000DA0020
S2050000DB001F
S2050000DC130B
S2050000DD8A93
S2050000DE001C
S2050000DF001B
S2050000E09387
S2050000E18A8F
S2050000E20018
S2050000E30017
S2050000E41303
S2050000E58B8A
S2050000E60014
S2050000E70013
S2050000E8937F
S2050000E98B86
S2050000EA0010
S2050000EB000F
S2050000EC13FB
S2050000ED8C81
S2050000EE000C
S2050000EF000B
S2050000F09377
S2050000F18C7D
S2050000F20008
S2050000F30007
S2050000F413F3
S2050000F58D78
S2050000F60004
S2050000F70003
S2050000F8936F
S2050000F98D74
S2050000FA0000
S2050000FB00FF
S2050000FC13EB
S2050000FD8E6F
S2050000FE00FC
S2050000FF00FB
S2050001009366
S2050001018E6A
S20500010200F7
S20500010300F6
S20500010413E2
S2050001058F65
S20500010600F3
S20500010700F2
S205000108935E
S2050001098F61
S20500010A00EF
S20500010B00EE
S20500010C17D6
S20500010D816B
S20500010E10DB
S20500010F00EA
S20500011013D6
S20500011101E7
S20500011241A6
S205000113EFF7
S20500011417CE
S2050001150DD7
S20500011610D3
S20500011700E2
S20500011813CE
S2050001190DD3
S20500011A0DD2
S20500011B4599
S20500011C9746
S20500011D0DCF
S20500011E10CB
S20500011F00DA
S2050001209346
S2050001218D4B
S2050001220DCA
S2050001234C8A
S2050001246372
S205000125587C
S205000126BD16
S20500012701D1
S20500012823AE
S20500012920B0
S20500012A0DC2
S20500012B00CE
S20500012C13BA
S20500012D0DBF
S20500012E4D7E
S20500012F00CA
S205000130E3E6
S205000131DCEC
S205000132AD1A
S205000133FFC7
S205000134EFD6
S20500013500C4
S20500013600C3
S205000137239F
S20500013813AE
S20500013905BB
S20500013A00BF
S20500013B00BE
S20500013C932A
S20500013D05B7
S20500013E10AB
S20500013F00BA
S205000140EFCA
S20500014110A8
S20500014200B7
S205000143694D
S20500014413A2
S20500014505AF
S20500014600B3
S20500014700B2
S205000148931E
S20500014905AB
S20500014A00AF
S20500014B00AE
S20500014CEFBE
S20500014D00AC
S20500014E802B
S20500014F2B7F
S2050001501396
S20500015104A4
S20500015205A2
S20500015300A6
S205000154EFB6
S2050001551094
S2050001568023
S2050001576F33
S205000158138E
S205000159059B
S20500015A049B
S20500015B009E
S20500015CEFAE
S20500015D108C
S20500015EC0DB
S20500015F7624
S2050001601386
S2050001610197
S2050001620196
S205000163FA9C
S2050001642372
S2050001652E66
S2050001661182
S205000167048E
S205000168EFA2
S2050001690090
S20500016A008F
S20500016B107E
S20500016C97F6
S20500016D008C
S20500016E008B
S20500016F008A
S20500017093F6
S2050001718008
S2050001724047
S205000173176F
S2050001746F16
S2050001750084
S205000176C0C3
S2050001773D45
S205000178136E
S205000179017F
S20500017A017E
S20500017BFA84
S20500017C235A
S20500017D2E4E
S20500017E116A
S20500017F0476
S205000180EF8A
S2050001810078
S20500018280F7
S2050001830E68
S20500018497DE
S2050001850074
S2050001860073
S2050001870072
S20500018893DE
S20500018980F0
S20500018AC0AF
S20500018B1559
S20500018C6FFE
S20500018D105C
S20500018E80EB
S20500018F5218
S2050001901356
S2050001910167
S2050001920166
S205000193FA6C
S2050001942342
S2050001952E36
S2050001961152
S205000197045E
S205000198EF72
S2050001990060
S20500019A005F
S20500019B0D51
S20500019C97C6
S20500019D005C
S20500019E005B
S20500019F005A
S2050001A093C6
S2050001A180D8
S2050001A24017
S2050001A31442
S2050001A46FE6
S2050001A50054
S2050001A64013
S2050001A760F2
S2050001A8133E
S2050001A9014F
S2050001AA014E
S2050001ABFA54
S2050001AC232A
S2050001AD2E1E
S2050001AE113A
S2050001AF0446
S2050001B0EF5A
S2050001B10048
S2050001B280C7
S2050001B30B3B
S2050001B497AE
S2050001B50044
S2050001B60043
S2050001B70042
S2050001B893AE
S2050001B980C0
S2050001BAC07F
S2050001BB122C
S2050001BC6FCE
S2050001BD102C
S2050001BEC07B
S2050001BF4FEB
S2050001C01326
S2050001C10137
S2050001C20136
S2050001C3FA3C
S2050001C42312
S2050001C52E06
S2050001C61122
S2050001C7042E
S2050001C8EF42
S2050001C90030
S2050001CA002F
S2050001CB0A24
S2050001CC9796
S2050001CD002C
S2050001CE002B
S2050001CF002A
S2050001D09396
S2050001D180A8
S2050001D240E7
S2050001D31115
S2050001D46FB6
S2050001D51014
S2050001D680A3
S2050001D74ED4
S2050001D8130E
S2050001D9011F
S2050001DA011E
S2050001DBFA24
S2050001DC23FA
S2050001DD2EEE
S2050001DE110A
S2050001DF0416
S2050001E0EF2A
S2050001E10018
S2050001E28097
S2050001E3080E
S2050001E4977E
S2050001E50014
S2050001E60013
S2050001E70012
S2050001E8937E
S2050001E98090
S2050001EAC04F
S2050001EB0FFF
S2050001EC6F9E
S2050001ED000C
S2050001EE000B
S2050001EF63A7
S2050001F013F6
S2050001F10107
S2050001F20106
S2050001F3FA0C
S2050001F423E2
S2050001F52ED6
S2050001F611F2
S2050001F704FE
S2050001F8EF12
S2050001F90000
S2050001FA00FF
S2050001FB07F7
S2050001FC9766
S2050001FD00FC
S2050001FE00FB
S2050001FF00FA
S2050002009365
S2050002018077
S20500020240B6
S2050002030EE7
S2050002046F85
S20500020510E3
S205000206C032
S2050002074BA6
S20500020813DD
S20500020901EE
S20500020A01ED
S20500020BFAF3
S20500020C23C9
S20500020D2EBD
S20500020E11D9
S20500020F04E5
S205000210EFF9
S20500021100E7
S2050002128066
S20500021305E0
S205000214974D
S20500021500E3
S20500021600E2
S20500021700E1
S205000218934D
S205000219805F
S20500021AC01E
S20500021B0CD1
S20500021C6F6D
S20500021D00DB
S20500021E805A
S20500021F6673
S20500022013C5
S20500022101D6
S20500022201D5
S205000223FADB
S20500022423B1
S2050002252EA5
S20500022611C1
S20500022704CD
S205000228EFE1
S20500022900CF
S20500022A00CE
S20500022B04C9
S20500022C9735
S20500022D00CB
S20500022E00CA
S20500022F00C9
S2050002309335
S2050002318047
S2050002324086
S2050002330BBA
S2050002346F55
S20500023510B3
S20500023600C2
S2050002374978
S20500023813AD
S20500023901BE
S20500023A01BD
S20500023BFAC3
S20500023C2399
S20500023D2E8D
S20500023E11A9
S20500023F04B5
S205000240EFC9
S20500024100B7
S2050002428036
S20500024302B3
S205000244971D
S20500024500B3
S20500024600B2
S20500024700B1
S205000248931D
S205000249802F
S20500024AC0EE
S20500024B09A4
S20500024C6F3D
S20500024D00AB
S20500024E802A
S20500024F7138
S2050002501395
S20500025101A6
S20500025201A5
S205000253FAAB
S2050002542381
S2050002552E75
S2050002561191
S205000257049D
S205000258EFB1
S205000259009F
S20500025A009E
S20500025B019C
S20500025C9705
S20500025D009B
S20500025E009A
S20500025F0099
S2050002609305
S2050002618017
S2050002624056
S205000263088D
S2050002646F25
S2050002651083
S2050002664052
S205000267335E
S205000268236D
S205000269206F
S20500026A315D
S20500026B008D
S20500026C2369
S20500026D2269
S20500026E4149
S20500026F0089
S2050002702365
S2050002712463
S2050002725135
S2050002730085
S2050002742361
S205000275265D
S2050002766121
S2050002770081
S205000278235D
S2050002792857
S20500027A710D
S20500027B007D
S20500027C2359
S20500027D2A51
S20500027EA1D9
S20500027F0079
S2050002802355
S2050002812C4B
S205000282B1C5
S2050002830075
S2050002842351
S2050002852E45
S205000286C1B1
S2050002870071
S205000288234D
S205000289204F
S20500028AD19D
S20500028B026B
S20500028C2349
S20500028D2249
S20500028EE189
S20500028F0267
S2050002902345
S2050002912443
S205000292F175
S2050002930263
S2050002942341
S205000295263D
S2050002960161
S205000297035E
S205000298233D
S2050002992837
S20500029A114D
S20500029B035A
S20500029C2339
S20500029D2A31
S20500029EC199
S20500029F0356
S2050002A02335
S2050002A12C2B
S2050002A2D185
S2050002A30352
S2050002A42331
S2050002A52E25
S2050002A6E171
S2050002A7034E
S2050002A8232D
S2050002A9202F
S2050002AAF15D
S2050002AB0548
S2050002AC73D9
S2050002AD2E1D
S2050002AE004A
S2050002AF7BCE
S2050002B0F355
S2050002B12E19
S2050002B21036
S2050002B37BCA
S2050002B473D1
S2050002B52F14
S2050002B62022
S2050002B77BC6
S2050002B8231D
S2050002B9221D
S2050002BAC17D
S2050002BB0538
S2050002BC2319
S2050002BD2417
S2050002BED169
S2050002BF0534
S2050002C02315
S2050002C12611
S2050002C2E155
S2050002C30530
S2050002C473C1
S2050002C52E05
S2050002C640F2
S2050002C77BB6
S2050002C8F33D
S2050002C92E01
S2050002CA50DE
S2050002CB7BB2
S2050002CC73B9
S2050002CD2FFC
S2050002CE60CA
S2050002CF7BAE
S2050002D02305
S2050002D128FF
S2050002D2C165
S2050002D30520
S2050002D42301
S2050002D52AF9
S2050002D6D151
S2050002D7051C
S2050002D823FD
S2050002D92CF3
S2050002DAE13D
S2050002DB0518
S2050002DC67B5
S2050002DD809B
S2050002DE001A
S2050002DF0019
S2050002E00315
S2050002E12EE9
S2050002E20115
S2050002E30510
S2050002E48391
S2050002E52EE5
S2050002E641D1
S2050002E7050C
S2050002E8030D
S2050002E92FE0
S2050002EA818D
S2050002EB0508
S2050002EC7399
S2050002ED10FB
S2050002EE4EBC
S2050002EF7B8E
S2050002F07395
S2050002F19077
S2050002F25EA8
S2050002F37B8A
S2050002F47391
S2050002F510F3
S2050002F66F93
S2050002F77B86
S2050002F803FD
S2050002F92ED1
S2050002FA41BD
S2050002FB04F9
S2050002FC8379
S2050002FD2ECD
S2050002FE8179
S2050002FF04F5
S20500030003F4
S2050003012FC7
S205000302C134
S20500030304F0
S2050003047380
S20500030510E2
S2050003060EE3
S2050003077B75
S205000308737C
S205000309905E
S20500030A1ECF
S20500030B7B71
S20500030C7378
S20500030D10DA
S20500030E2FBA
S20500030F7B6D
S2050003108364
S20500031121C5
S20500031201E4
S20500031300E4
S20500031403E0
S20500031522C0
S20500031641A0
S20500031700E0
S205000318835C
S20500031922BC
S20500031A815C
S20500031B00DC
S20500031C03D8
S20500031D23B7
S20500031EC118
S20500031F00D8
S2050003208354
S20500032123B3
S20500032201D4
S20500032301D3
S20500032403D0
S20500032525AD
S2050003264190
S20500032701CF
S205000328834C
S20500032925A9
S20500032A814C
S20500032B01CB
S20500032C03C8
S20500032D26A4
S20500032EC108
S20500032F01C7
S2050003308344
S20500033126A0
S20500033201C4
S20500033302C2
S20500033403C0
S205000335279B
S2050003364180
S20500033702BE
S205000338833C
S2050003392797
S20500033A813C
S20500033B02BA
S20500033C03B8
S20500033D2892
S20500033EC1F8
S20500033F02B6
S2050003408334
S205000341288E
S20500034201B4
S20500034303B1
S20500034403B0
S2050003452E84
S2050003464170
S20500034703AD
S205000348832C
S2050003492E80
S20500034A812C
S20500034B03A9
S20500034C03A8
S20500034D2F7B
S20500034EC1E8
S20500034F03A5
S2050003508324
S2050003512F77
S20500035201A4
S20500035304A0
S2050003548320
S2050003552082
S205000356C1E0
S205000357059B
S205000358138C
S205000359019D
S20500035A019C
S20500035B0696
S20500035C7328
S20500035D009A
S20500035E2079
S20500035F3068
S2050003606730
S2050003618016
S2050003620095
S2050003630094
S2050003641380
S2050003650191
S2050003660190
S205000367FF91
S205000368236C
S205000369226C
S20500036A91FC
S20500036B008C
S20500036CB7D4
S20500036D0783
S20500036E1079
S20500036F0088
S205000370B7D0
S2050003710482
S2050003721075
S2050003730084
S2050003742360
S2050003752062
S2050003762160
S205000377017F
S20500037893EC
S20500037987F7
S20500037A0776
S20500037B007C
S20500037C1368
S20500037D89F1
S20500037E0475
S20500037F0078
S2050003805B1C
S205000381B9BD
S205000382274E
S205000383056F
S2050003842350
S205000385244E
S20500038681F0
S2050003870070
S205000388234C
S2050003892648
S20500038A115C
S20500038B006C
S20500038C93D8
S20500038D84E6
S20500038E0465
S20500038F0068
S2050003901354
S2050003910462
S2050003920065
S2050003930064
S2050003946300
S2050003950A58
S2050003960958
S2050003970060
S2050003988BD4
S205000399A7B7
S20500039A4419
S20500039B005C
S20500039C1348
S20500039D0456
S20500039E1445
S20500039F0058
S2050003A0E770
S2050003A180D6
S2050003A2074E
S2050003A30054
S2050003A4E370
S2050003A51A38
S2050003A689C8
S2050003A7FE52
S2050003A8B798
S2050003A9044A
S2050003AA103D
S2050003AB004C
S2050003ACEF5C
S2050003ADF05A
S2050003AE5FEA
S2050003AFFB4D
S2050003B0B790
S2050003B1073F
S2050003B21035
S2050003B30044
S2050003B41330
S2050003B589B9
S2050003B6043D
S2050003B70040
S2050003B893AC
S2050003B987B7
S2050003BA0736
S2050003BB003C
S2050003BC5BE0
S2050003BDB981
S2050003BE2712
S2050003BF0533
S2050003C093A4
S2050003C184B2
S2050003C20431
S2050003C30034
S2050003C41320
S2050003C5042E
S2050003C60031
S2050003C70030
S2050003C863CC
S2050003C90A24
S2050003CA0924
S2050003CB002C
S2050003CC8BA0
S2050003CDA783
S2050003CE44E5
S2050003CF0028
S2050003D01314
S2050003D10422
S2050003D21411
S2050003D30024
S2050003D4E73C
S2050003D580A2
S2050003D6071A
S2050003D70020
S2050003D8E33C
S2050003D91A04
S2050003DA8994
S2050003DBFE1E
S2050003DC8398
S2050003DD20FA
S2050003DEC158
S2050003DF0018
S2050003E00314
S2050003E124F2
S2050003E28194
S2050003E30014
S2050003E48390
S2050003E524EE
S2050003E641D0
S2050003E70010
S2050003E8030C
S2050003E929E5
S2050003EA010C
S2050003EB000C
S2050003EC13F8
S2050003ED0109
S2050003EE0108
S2050003EF0107
S2050003F067A0
S2050003F18086
S2050003F20005
S2050003F30004
S2050003F40003
S2050003F50002
S2050003F60001
S2050003F70000
S2050003F800FF
S2050003F900FE
S2050003FA00FD
S2050003FB00FC
S2050003FC00FB
S2050003FD00FA
S2050003FE00F9
S2050003FF00F8
S20500040000F6
S20500040100F5
S20500040200F4
S20500040300F3
S20500040413DF
S20500040501F0
S20500040601EF
S205000407FCF3
S20500040837B7
S20500040905E8
S20500040A10DC
S20500040B00EB
S20500040C23C7
S20500040D2CBD
S20500040E8167
S20500040F02E5
S20500041023C3
S2050004112ABB
S2050004129153
S20500041302E1
S20500041437AB
S20500041504DD
S2050004169050
S205000417409F
S205000418B727
S20500041904D9
S20500041A706C
S20500041B409B
S20500041C13C7
S20500041D05D4
S20500041E05D3
S20500041F00D7
S20500042023B3
S2050004212EA7
S20500042211C3
S20500042302D1
S20500042423AF
S20500042520B1
S205000426913F
S20500042700CF
S20500042823AB
S20500042922AB
S20500042A814B
S20500042B00CB
S20500042C23A7
S20500042D24A5
S20500042E01C7
S20500042F00C7
S20500043023A3
S205000431269F
S20500043201C3
S20500043300C3
S205000434EFD3
S20500043510B1
S2050004368040
S20500043710AF
S205000438B707
S20500043917A6
S20500043A11AB
S20500043B1AA1
S20500043C13A7
S20500043D8732
S20500043E07B1
S20500043F00B7
S2050004402B8B
S2050004412293
S205000442971D
S20500044300B3
S205000444931F
S205000445862B
S2050004468729
S20500044700AF
S205000448238B
S205000449208D
S20500044A8725
S20500044B00AB
S20500044C2387
S20500044DA009
S20500044E06A2
S20500044F00A7
S2050004508323
S205000451A7FE
S205000452079D
S20500045301A2
S205000454930F
S205000455059C
S20500045600A0
S205000457009F
S205000458930B
S2050004590796
S20500045A009C
S20500045B108B
S20500045C1387
S20500045D0594
S20500045E0197
S20500045F0097
S2050004602373
S2050004612075
S205000462F1A3
S2050004630093
S205000464EFA3
S2050004651081
S2050004668010
S2050004672D62
S20500046893FB
S2050004690786
S20500046A107C
S20500046B1873
S20500046C2367
S20500046D2069
S20500046EF197
S20500046F0087
S205000470B7CF
S205000471077E
S2050004728004
S2050004730083
S205000474235F
S205000475225F
S205000476F18F
S205000477007F
S205000478B7C7
S20500047997E6
S20500047A0A72
S20500047B0477
S20500047C93E7
S20500047D87F2
S20500047E1761
S20500047F1E59
S20500048093E3
S205000481066F
S205000482C1B3
S2050004830073
S205000484135F
S205000485066B
S20500048681EF
S205000487006F
S205000488135B
S2050004890766
S20500048A006C
S20500048B006B
S20500048C93D7
S20500048D0564
S20500048E4127
S20500048F0067
S2050004901353
S2050004910560
S2050004920163
S2050004930063
S205000494233F
S205000495243D
S205000496F16F
S205000497005F
S20500049893CB
S2050004990756
S20500049A005C
S20500049B0853
S20500049C2337
S20500049D2633
S20500049EF167
S20500049F0057
S2050004A0EF67
S2050004A11045
S2050004A24014
S2050004A3262D
S2050004A4371B
S2050004A5D77A
S2050004A64B05
S2050004A795BA
S2050004A8133B
S2050004A90746
S2050004AA57F5
S2050004ABA3A8
S2050004AC2327
S2050004AD2A1F
S2050004AEE167
S2050004AF0047
S2050004B0370F
S2050004B1C77E
S2050004B2B58F
S2050004B3350E
S2050004B4132F
S2050004B5073A
S2050004B667D9
S2050004B7C37C
S2050004B8231B
S2050004B92C11
S2050004BAE15B
S2050004BB003B
S2050004BC3703
S2050004BD57E2
S2050004BE95A3
S2050004BF3601
S2050004C01323
S2050004C1072E
S2050004C2A78D
S2050004C3BC77
S2050004C4230F
S2050004C52E03
S2050004C6E14F
S2050004C7002F
S2050004C837F7
S2050004C9B776
S2050004CA35F7
S2050004CBCA61
S2050004CC1317
S2050004CD0722
S2050004CEC761
S2050004CF5BCC
S2050004D02303
S2050004D12005
S2050004D2E143
S2050004D30221
S2050004D437EB
S2050004D5978A
S2050004D636EA
S2050004D7BC63
S2050004D8130B
S2050004D90716
S2050004DAC755
S2050004DB54C7
S2050004DC23F7
S2050004DD22F7
S2050004DEE137
S2050004DF0215
S2050004E0B75F
S2050004E137DE
S2050004E2BC58
S2050004E3B55E
S2050004E437DB
S2050004E537DA
S2050004E6CA46
S2050004E74BC4
S2050004E8937B
S2050004E98786
S2050004EA57B5
S2050004EB69A2
S2050004EC13F7
S2050004ED0702
S2050004EE57B1
S2050004EF5BAC
S2050004F09373
S2050004F10500
S2050004F20004
S2050004F30003
S2050004F413EF
S2050004F505FC
S2050004F601FF
S2050004F701FE
S2050004F823DB
S2050004F924D9
S2050004FAE11B
S2050004FB02F9
S2050004FC23D7
S2050004FD28D1
S2050004FEF107
S2050004FF00F7
S20500050023D2
S20500050126CE
S205000502F102
S20500050302F0
S205000504EF02
S20500050510E0
S205000506806F
S20500050724CA
S205000508EFFE
S20500050910DC
S20500050AC02B
S20500050B1CCE
S20500050C37B2
S20500050D07E1
S20500050E02E5
S20500050F00E6
S20500051013D2
S20500051107DD
S20500051207DC
S20500051341A1
S205000514835E
S20500051527B9
S20500051607D8
S20500051700DE
S205000518E3FA
S205000519BE1E
S20500051A4794
S20500051BFEDC
S20500051CEFEA
S20500051D10C8
S20500051EC017
S20500051F1ABC
S205000520379E
S20500052107CD
S20500052202D1
S20500052300D2
S20500052413BE
S20500052507C9
S20500052607C8
S205000527418D
S205000528834A
S20500052927A5
S20500052A07C4
S20500052B00CA
S20500052CE3E6
S20500052DBE0A
S20500052E6760
S20500052FFEC8
S20500053013B2
S20500053105BF
S20500053200C3
S20500053300C2
S205000534EFD2
S20500053510B0
S20500053600BF
S2050005371CA2
S205000538833A
S205000539209C
S20500053AC1FA
S20500053B03B7
S20500053C13A6
S20500053D05B3
S20500053E00B7
S20500053F00B6
S20500054003B2
S2050005412490
S2050005428132
S20500054303AF
S205000544832E
S205000545248C
S205000546416E
S20500054703AB
S205000548139A
S20500054901AB
S20500054A01AA
S20500054B04A6
S20500054C6742
S20500054D8028
S20500054E00A7
S20500054F00A6
S205000550376E
S205000551574D
S2050005521093
S2050005531A88
S205000554831E
S2050005552779
S205000556C7D8
S205000557009E
S205000558930A
S205000559F6A6
S20500055A0794
S20500055B0298
S20500055C6336
S20500055D9008
S20500055E0691
S20500055F1284
S2050005609302
S205000561F79D
S205000562078C
S205000563088A
S205000564632E
S205000565820E
S2050005660788
S2050005670688
S205000568B7D6
S2050005690785
S20500056A107B
S20500056B008A
S20500056C1376
S20500056D8602
S20500056E97F0
S20500056F582E
S2050005708302
S205000571473D
S205000572067D
S2050005730082
S20500057493EE
S205000575F789
S205000576F788
S2050005770F6F
S205000578631A
S205000579ACD0
S20500057A2754
S20500057B1664
S20500057CB7C2
S20500057D5721
S20500057E1067
S20500057F1A5C
S2050005801362
S20500058187ED
S205000582472C
S2050005830171
S20500058493DE
S205000585066A
S205000586006F
S205000587046A
S205000588234A
S205000589204C
S20500058AD794
S20500058B006A
S20500058C93D6
S20500058D87E1
S20500058E4720
S20500058F0066
S2050005901352
S205000591075D
S2050005920063
S205000593085A
S205000594233E
S205000595A0C0
S205000596E778
S205000597005E
S205000598233A
S205000599005C
S20500059A0655
S20500059B005A
S20500059CB7A2
S20500059D5701
S20500059E1047
S20500059F1A3C
S2050005A093C2
S2050005A187CD
S2050005A2470C
S2050005A30151
S2050005A4034E
S2050005A5A7A9
S2050005A60748
S2050005A7004E
S2050005A8331A
S2050005A94705
S2050005AA0744
S2050005ABC08A
S2050005AC2326
S2050005ADA0A8
S2050005AEE760
S2050005AF0046
S2050005B0B78E
S2050005B147FD
S2050005B21033
S2050005B31A28
S2050005B493AE
S2050005B587B9
S2050005B6C778
S2050005B7003E
S2050005B8033A
S2050005B9A795
S2050005BA0734
S2050005BB003A
S2050005BC3306
S2050005BD47F1
S2050005BE77C0
S2050005BFC175
S2050005C02312
S2050005C1A094
S2050005C2E74C
S2050005C30032
S2050005C467CA
S2050005C580B0
S2050005C6002F
S2050005C7002E
S2050005C8B776
S2050005C90725
S2050005CA101B
S2050005CB002A
S2050005CC1316
S2050005CD86A2
S2050005CE9790
S2050005CF58CE
S2050005D083A2
S2050005D146DE
S2050005D2061D
S2050005D30022
S2050005D4938E
S2050005D5F62A
S2050005D6F629
S2050005D70F0F
S2050005D863BA
S2050005D9A478
S2050005DA26F5
S2050005DB0C0E
S2050005DC8396
S2050005DD46D2
S2050005DE0611
S2050005DF0016
S2050005E09382
S2050005E1F61E
S2050005E2F61D
S2050005E30F03
S2050005E4E32E
S2050005E5BC54
S2050005E616F9
S2050005E7FA14
S2050005E8B756
S2050005E90705
S2050005EA10FB
S2050005EB000A
S2050005EC9376
S2050005ED8781
S2050005EE57B0
S2050005EF58AE
S2050005F08382
S2050005F1C63E
S2050005F207FC
S2050005F30002
S2050005F4936E
S2050005F5F60A
S2050005F6F609
S2050005F70FEF
S2050005F8639A
S2050005F99468
S2050005FA06F5
S2050005FB12E8
S2050005FCB742
S2050005FD07F1
S2050005FE10E7
S2050005FF00F6
S2050006009361
S205000601876C
S205000602678B
S2050006035899
S205000604836D
S205000605C629
S20500060607E7
S20500060700ED
S2050006089359
S205000609F6F5
S20500060AF6F4
S20500060B0FDA
S20500060C9355
S20500060D8562
S20500060E16D0
S20500060F00E5
S2050006109351
S205000611F5EE
S205000612F5ED
S2050006130FD2
S20500061423BD
S205000615805F
S205000616B727
S20500061700DD
S205000618B725
S20500061905D6
S20500061A10CA
S20500061B00D9
S20500061C03D5
S20500061D27B0
S20500061E874F
S20500061F00D5
S2050006209341
S205000621854E
S205000622458D
S205000623567B
S205000624A32D
S205000625C609
S205000626E5E9
S20500062700CD
S20500062803C9
S205000629C704
S20500062A07C3
S20500062B00C9
S20500062CB711
S20500062D07C0
S20500062E10B6
S20500062F00C5
S2050006308341
S205000631C7FC
S205000632A71B
S2050006335869
S20500063413AD
S2050006357748
S205000636F7C7
S2050006370FAE
S2050006389329
S205000639F7C4
S20500063AF7C3
S20500063B0FAA
S20500063C6355
S20500063D6C4B
S20500063EF7BF
S20500063F14A1
S205000640B7FD
S20500064107AC
S20500064210A2
S20500064300B1
S205000644832D
S205000645C7E8
S2050006464767
S2050006475855
S2050006489319
S205000649F7B4
S20500064AF7B3
S20500064B0F9A
S20500064CE3C5
S20500064D980F
S20500064E079F
S20500064FF2B3
S205000650B7ED
S205000651574C
S2050006521092
S2050006531A87
S205000654930D
S2050006558619
S2050006564757
S205000657009D
S2050006581389
S2050006590794
S20500065A009A
S20500065B0891
S20500065C9305
S20500065D8710
S20500065E474F
S20500065F0194
S2050006601381
S205000661058E
S2050006621082
S2050006630091
S205000664B7D9
S205000665058A
S205000666107E
S205000667008D
S205000668A3E9
S2050006698308
S20500066AA5E5
S20500066B5831
S20500066C2365
S20500066DA0E7
S20500066EE6A0
S20500066F0085
S2050006702361
S205000671A0E3
S205000672E79B
S2050006730081
S205000674235D
S205000675007F
S2050006760678
S205000677007D
S2050006786F0D
S205000679F08B
S20500067A5F1B
S20500067BF287
S20500067CB7C1
S20500067D0770
S20500067E1066
S20500067F0075
S20500068093E1
S205000681066D
S20500068280F2
S205000683036E
S205000684234D
S20500068584EB
S205000686D797
S2050006875815
S2050006881359
S2050006890764
S20500068A4723
S20500068B0069
S20500068C93D5
S20500068D0760
S20500068E0066
S20500068F085D
S2050006902341
S2050006912043
S205000692F76B
S2050006930061
S205000694B7A9
S2050006950758
S205000696104E
S205000697005D
S205000698A3B9
S20500069984D7
S20500069A0753
S20500069B5801
S20500069C6FE9
S20500069DF067
S20500069E1F37
S20500069FF065
S2050006A0B79D
S2050006A1074C
S2050006A21042
S2050006A30051
S2050006A493BD
S2050006A587C8
S2050006A667E7
S2050006A758F5
S2050006A8B795
S2050006A90645
S2050006AA103A
S2050006AB0049
S2050006AC83C5
S2050006ADC582
S2050006AE073F
S2050006AF0045
S2050006B083C1
S2050006B1C67D
S2050006B2A69C
S2050006B358E9
S2050006B493AD
S2050006B5F54A
S2050006B6F549
S2050006B70F2E
S2050006B893A9
S2050006B9F645
S2050006BAF644
S2050006BB0F2A
S2050006BC63D5
S2050006BDEE49
S2050006BED561
S2050006BF082D
S2050006C0B77D
S2050006C1072C
S2050006C21022
S2050006C30031
S2050006C483AD
S2050006C5C768
S2050006C647E7
S2050006C758D5
S2050006C89399
S2050006C9F734
S2050006CAF733
S2050006CB0F1A
S2050006CC63C5
S2050006CD82A5
S2050006CE071F
S2050006CF061F
S2050006D09391
S2050006D1071C
S2050006D247DB
S2050006D30120
S2050006D4938D
S2050006D50619
S2050006D6001E
S2050006D70419
S2050006D823F9
S2050006D9A07B
S2050006DAD743
S2050006DB0019
S2050006DC1305
S2050006DD0710
S2050006DE47CF
S2050006DF0015
S2050006E09381
S2050006E1070C
S2050006E20012
S2050006E30809
S2050006E423ED
S2050006E520EF
S2050006E6F717
S2050006E7000D
S2050006E823E9
S2050006E9000B
S2050006EA0604
S2050006EB0009
S2050006EC6F99
S2050006EDF017
S2050006EE1FE7
S2050006EFEB1A
S2050006F0B74D
S2050006F107FC
S2050006F210F2
S2050006F30001
S2050006F4837D
S2050006F5C738
S2050006F66797
S2050006F758A5
S2050006F89369
S2050006F9F704
S2050006FAF703
S2050006FB0FEA
S2050006FC6395
S2050006FD9A5D
S2050006FE07EF
S2050006FF00F5
S20500070013E0
S20500070107EB
S20500070200F1
S20500070302EE
S205000704B738
S20500070507E7
S20500070610DD
S20500070700EC
S20500070823C8
S2050007098466
S20500070AE702
S20500070B5890
S20500070C6F78
S20500070DF0F6
S20500070E1FC6
S20500070FE7FD
S20500071013D0
S20500071107DB
S20500071200E1
S20500071303DD
S205000714B728
S20500071507D7
S20500071610CD
S20500071700DC
S20500071823B8
S2050007198456
S20500071AE7F2
S20500071B5880
S20500071C6F68
S20500071DF0E6
S20500071E1FB6
S20500071FE6EE
S20500072023B0
S2050007218052
S20500072207CA
S20500072300D0
S205000724B718
S20500072507C7
S20500072610BD
S20500072700CC
S2050007289338
S2050007298743
S20500072A6762
S20500072B5870
S20500072C6F58
S20500072DF0D6
S20500072EDFE6
S20500072FEFD5
S2050007309330
S20500073106BC
S205000732477A
S20500073300C0
S205000734932C
S20500073507B7
S20500073600BD
S20500073708B4
S20500073813A8
S20500073907B3
S20500073A4772
S20500073B01B7
S20500073C13A4
S20500073D05B1
S20500073E10A5
S20500073F00B4
S205000740B7FC
S20500074105AD
S20500074210A1
S20500074300B0
S205000744A30C
S205000745832B
S205000746A508
S2050007475854
S2050007482388
S205000749A00A
S20500074AF6B3
S20500074B00A8
S20500074C2384
S20500074D2086
S20500074EF7AE
S20500074F00A4
S2050007502380
S20500075100A2
S205000752069B
S20500075300A0
S2050007546F30
S205000755F0AE
S2050007569FFE
S205000757E4B8
S2050007588318
S205000759C6D4
S20500075A0792
S20500075B0098
S20500075C3760
S20500075D0690
S20500075E1085
S20500075F0094
S2050007609300
S205000761F69C
S205000762F69B
S2050007630F81
S205000764137C
S2050007650688
S2050007664647
S2050007675636
S2050007683358
S2050007690684
S20500076AD6B3
S20500076B0088
S20500076C93F4
S20500076D8600
S20500076E166F
S20500076F0084
S2050007708300
S205000771453D
S205000772067B
S2050007730080
S20500077493EC
S205000775F688
S205000776F687
S2050007770F6D
S2050007781368
S2050007790674
S20500077A0772
S20500077B0177
S20500077C2354
S20500077D80F6
S20500077ED79E
S20500077F0074
S2050007801360
S205000781076B
S205000782472A
S205000783016F
S20500078493DC
S2050007850767
S205000786006D
S205000787016B
S2050007882348
S205000789204A
S20500078AB6B3
S20500078B0068
S20500078C2344
S20500078D2046
S20500078EF76E
S20500078F0064
S2050007906FF4
S205000791F072
S205000792DF82
S205000793E080
S205000794134C
S2050007950757
S205000796005D
S205000797025A
S205000798B7A4
S2050007995703
S20500079A1049
S20500079B1A3E
S20500079C2334
S20500079DAAAC
S20500079EE76E
S20500079F0054
S2050007A06FE4
S2050007A1F062
S2050007A2DF72
S2050007A3DF71
S2050007A467E8
S2050007A580CE
S2050007A6004D
S2050007A7004C
S2050007A8B794
S2050007A91733
S2050007AA1039
S2050007AB1A2E
S2050007AC83C4
S2050007ADA79F
S2050007AE87BE
S2050007AF0143
S2050007B01330
S2050007B1073B
S2050007B20041
S2050007B30040
S2050007B463DC
S2050007B5A896
S2050007B61726
S2050007B7003C
S2050007B893A8
S2050007B9D763
S2050007BA1722
S2050007BB0038
S2050007BC1324
S2050007BD072F
S2050007BE171E
S2050007BF0034
S2050007C0E350
S2050007C1BC76
S2050007C2171A
S2050007C3FE32
S2050007C4B778
S2050007C50727
S2050007C6101D
S2050007C7002C
S2050007C81318
S2050007C91713
S2050007CA2702
S2050007CB0028
S2050007CC9394
S2050007CD879F
S2050007CE47DE
S2050007CF4DD7
S2050007D00320
S2050007D1F72B
S2050007D2E73A
S2050007D32000
S2050007D463BC
S2050007D50816
S2050007D60716
S2050007D7021A
S2050007D81308
S2050007D90119
S2050007DA0118
S2050007DBFF19
S2050007DC23F4
S2050007DD26F0
S2050007DE1104
S2050007DF0014
S2050007E0E72C
S2050007E10012
S2050007E2070A
S2050007E30010
S2050007E4B758
S2050007E547C7
S2050007E610FD
S2050007E71AF2
S2050007E89378
S2050007E98783
S2050007EAC742
S2050007EB0008
S2050007EC0304
S2050007EDA75F
S2050007EE07FE
S2050007EF0004
S2050007F08380
S2050007F120E2
S2050007F2C140
S2050007F30000
S2050007F433CC
S2050007F547B7
S2050007F69766
S2050007F7C13B
S2050007F823D8
S2050007F9A05A
S2050007FAE712
S2050007FB00F8
S2050007FC13E4
S2050007FD01F5
S2050007FE01F4
S2050007FF01F3
S205000800678B
S2050008018071
S20500080200F0
S20500080300EF
S205000804B737
S20500080547A6
S20500080610DC
S2050008071AD1
S2050008089357
S2050008098762
S20500080AC721
S20500080B00E7
S20500080C03E3
S20500080DA73E
S20500080E07DD
S20500080F00E3
S20500081033AF
S205000811479A
S2050008129749
S205000813C11E
S20500081423BB
S205000815A03D
S205000816E7F5
S20500081700DB
S2050008186773
S2050008198059
S20500081A00D8
S20500081B00D7
S20500081CB71F
S20500081D06CF
S20500081E10C4
S20500081F00D3
S205000820933F
S205000821864B
S205000822468A
S2050008235976
S20500082403CB
S205000825C607
S20500082606C6
S20500082700CB
S2050008283793
S20500082907C2
S20500082A10B8
S20500082B00C7
S20500082C9333
S20500082D07BE
S20500082E16AE
S20500082F05BE
S20500083013AF
S20500083107BA
S20500083207B9
S2050008335966
S205000834932B
S205000835F7C6
S205000836F7C5
S2050008370FAC
S20500083813A7
S20500083905B4
S20500083AC0F8
S20500083B07B0
S20500083C8333
S20500083D2590
S20500083E07AD
S20500083F00B3
S205000840634F
S2050008417839
S205000842F5BB
S20500084300AF
S205000844931B
S20500084507A6
S2050008464666
S205000847FDAE
S2050008489317
S205000849F7B2
S20500084AF7B1
S20500084B0F98
S20500084C9313
S20500084D8520
S20500084E158F
S20500084F00A3
S205000850237F
S2050008512081
S205000852B7E9
S205000853009F
S2050008543767
S2050008550796
S205000856108C
S205000857009B
S2050008581387
S2050008590792
S20500085AC7D1
S20500085B583F
S20500085C0393
S20500085D266F
S20500085E078D
S20500085F0093
S205000860236F
S2050008618011
S205000862F69A
S205000863008F
S205000864137B
S2050008650687
S2050008661676
S205000867008B
S205000868B7D3
S2050008694742
S20500086A1078
S20500086B1A6D
S20500086C2363
S20500086D2065
S20500086EC7BD
S20500086F0083
S20500087093EF
S20500087187FA
S205000872C7B9
S205000873007F
S205000874037B
S205000875A7D6
S2050008760775
S205000877007B
S2050008783347
S2050008794732
S20500087AD7A1
S20500087BC1B6
S20500087C2353
S20500087DA0D5
S20500087EE78D
S20500087F0073
S205000880670B
S20500088180F1
S2050008820070
S205000883006F
S2050008843737
S205000885036A
S205000886105C
S205000887006B
S2050008880367
S2050008894524
S20500088A93D5
S20500088B590E
S20500088C93D3
S20500088D075E
S20500088EF074
S20500088F0162
S20500089063FF
S2050008910E53
S205000892F56B
S2050008930659
S205000894B7A7
S2050008950756
S205000896104C
S205000897005B
S205000898B7A3
S2050008990653
S20500089A1048
S20500089B0057
S20500089CB79F
S20500089D183D
S20500089E1044
S20500089F1A39
S2050008A093BF
S2050008A187CA
S2050008A2C789
S2050008A359F6
S2050008A493BB
S2050008A586C7
S2050008A6D676
S2050008A759F2
S2050008A81337
S2050008A90643
S2050008AA0048
S2050008AB0047
S2050008AC93B3
S2050008AD88BD
S2050008AE88BC
S2050008AF0043
S2050008B0132F
S2050008B10E33
S2050008B21030
S2050008B3003F
S2050008B4FB43
S2050008B550ED
S2050008B60735
S2050008B70239
S2050008B883B7
S2050008B9C574
S2050008BA0731
S2050008BB0037
S2050008BC93A3
S2050008BD87AE
S2050008BE270D
S2050008BF0033
S2050008C063CF
S2050008C186AB
S2050008C2052B
S2050008C3002F
S2050008C483AB
S2050008C5C568
S2050008C60626
S2050008C7002B
S2050008C863C7
S2050008C986A3
S2050008CAA583
S2050008CB0225
S2050008CC1313
S2050008CD061F
S2050008CE160E
S2050008CF0023
S2050008D0938F
S2050008D1869B
S2050008D226FA
S2050008D3001F
S2050008D4B767
S2050008D547D6
S2050008D6100C
S2050008D71A01
S2050008D81307
S2050008D90514
S2050008DA1503
S2050008DB0017
S2050008DCA373
S2050008DD0C09
S2050008DEA371
S2050008DF58BB
S2050008E0937F
S2050008E1878A
S2050008E2C749
S2050008E3000F
S2050008E4030B
S2050008E5A766
S2050008E60705
S2050008E7000B
S2050008E833D7
S2050008E947C2
S2050008EAF711
S2050008EBC146
S2050008EC23E3
S2050008EDA065
S2050008EEE71D
S2050008EF0003
S2050008F0679B
S2050008F18081
S2050008F20000
S2050008F300FF
S2050008F403FB
S2050008F5A855
S2050008F608F4
S2050008F700FB
S2050008F8B347
S2050008F915E4
S2050008FACE2A
S2050008FB00F7
S2050008FC9363
S2050008FDC530
S2050008FEF5FF
S2050008FFFFF4
S205000900B33E
S205000901F5FB
S20500090205EA
S20500090301ED
S20500090423CA
S205000905A04C
S205000906B833
S20500090700EA
S2050009086F7A
S205000909F0F8
S20500090A5F88
S20500090BFCEA
S20500090CB72E
S20500090D07DD
S20500090E10D3
S20500090F00E2
S20500091037AA
S20500091115CB
S20500091210CF
S2050009131AC4
S205000914934A
S2050009158755
S205000916C714
S2050009175981
S2050009189346
S20500091906D2
S20500091A00D7
S20500091B00D6
S20500091C13C2
S20500091D05CF
S20500091E854E
S20500091F00D2
S20500092013BE
S20500092108C8
S20500092210BF
S20500092300CE
S205000924FBD2
S205000925507C
S20500092608C3
S20500092702C8
S20500092803C6
S205000929C602
S20500092A07C0
S20500092B00C6
S20500092CB312
S20500092D15AF
S20500092ED8EB
S20500092F00C2
S205000930635E
S20500093108B8
S20500093206B9
S20500093300BE
S20500093403BA
S2050009352696
S20500093605B6
S20500093700BA
S2050009383386
S205000939E6D2
S20500093AC5F2
S20500093B00B6
S20500093C2392
S20500093D2094
S20500093EC5EE
S20500093F00B2
S205000940931E
S205000941862A
S2050009421699
S20500094300AE
S205000944931A
S2050009458725
S2050009462784
S20500094700AA
S205000948B7F2
S2050009494761
S20500094A1097
S20500094B1A8C
S20500094CA302
S20500094D0C98
S20500094E03A0
S20500094F584A
S205000950930E
S2050009518719
S205000952C7D8
S205000953009E
S205000954039A
S205000955A7F5
S2050009560794
S205000957009A
S2050009583366
S2050009594751
S20500095AF7A0
S20500095BC1D5
S20500095C2372
S20500095DA0F4
S20500095EE7AC
S20500095F0092
S205000960672A
S2050009618010
S205000962008F
S205000963008E
S205000964F39A
S2050009652567
S205000966107B
S2050009673456
S2050009683752
S2050009690583
S20500096A1077
S20500096B0086
S20500096C0382
S20500096DA6DE
S20500096E057E
S20500096F0082
S205000970136E
S205000971017F
S205000972017E
S205000973FF7F
S205000974136A
S2050009750577
S20500097685F6
S2050009771862
S2050009782356
S2050009792652
S20500097A1166
S20500097B0076
S20500097CEF86
S20500097D0074
S20500097E4033
S20500097F3D35
S205000980135E
S205000981056B
S205000982105F
S205000983006E
S205000984EF7E
S205000985006C
S205000986501B
S20500098774F6
S2050009881356
S2050009890167
S20500098A0166
S20500098BFC6A
S20500098C2342
S20500098D2C38
S20500098E81E2
S20500098F0260
S205000990233E
S2050009912A36
S20500099291CE
S205000993025C
S205000994233A
S2050009952E2E
S205000996114A
S2050009970258
S2050009982336
S2050009992830
S20500099A2136
S20500099B0353
S20500099C2332
S20500099D262E
S20500099E3122
S20500099F034F
S2050009A0232E
S2050009A1242C
S2050009A2410E
S2050009A3034B
S2050009A4232A
S2050009A5222A
S2050009A651FA
S2050009A70347
S2050009A82326
S2050009A92028
S2050009AA61E6
S2050009AB0343
S2050009AC1332
S2050009AD84C0
S2050009AE063D
S2050009AF0042
S2050009B093AE
S2050009B1043C
S2050009B20738
S2050009B3003E
S2050009B463DA
S2050009B50438
S2050009B60536
S2050009B72218
S2050009B81326
S2050009B90830
S2050009BA0532
S2050009BB0036
S2050009BC63D2
S2050009BD0430
S2050009BE062D
S2050009BF0032
S2050009C063CE
S2050009C1AC84
S2050009C2A58A
S2050009C32C02
S2050009C4131A
S2050009C50725
S2050009C6002B
S2050009C70129
S2050009C8A386
S2050009C90F19
S2050009CA0126
S2050009CB0026
S2050009CC63C2
S2050009CD8E96
S2050009CEE53E
S2050009CF140E
S2050009D0130E
S2050009D10E12
S2050009D2001F
S2050009D3001E
S2050009D463BA
S2050009D5021A
S2050009D60516
S2050009D71EFC
S2050009D837E2
S2050009D90315
S2050009DA1007
S2050009DB0016
S2050009DCB75E
S2050009DDA86C
S2050009DE997A
S2050009DF19F9
S2050009E013FE
S2050009E10709
S2050009E2E12E
S2050009E3010D
S2050009E413FA
S2050009E50309
S2050009E643C8
S2050009E755B5
S2050009E89376
S2050009E98880
S2050009EA986F
S2050009EB996D
S2050009EC9372
S2050009ED56AE
S2050009EE18EB
S2050009EF0002
S2050009F0936E
S2050009F157A9
S2050009F228D7
S2050009F300FE
S2050009F4B34A
S2050009F58775
S2050009F6D724
S2050009F700FA
S2050009F813E6
S2050009F9D622
S2050009FA47B0
S2050009FB00F6
S2050009FCB342
S2050009FD876D
S2050009FEC72C
S2050009FF00F2
S205000A0013DD
S205000A01D619
S205000A028767
S205000A0300ED
S205000A04B339
S205000A058764
S205000A06C723
S205000A0700E9
S205000A08B335
S205000A0906E1
S205000A0A18CE
S205000A0B43A2
S205000A0C13D1
S205000A0D558E
S205000A0E38AA
S205000A0F00E1
S205000A1013CD
S205000A11D609
S205000A1207D7
S205000A1301DC
S205000A14DB01
S205000A15A734
S205000A16C713
S205000A178653
S205000A185B7D
S205000A19A532
S205000A1AA630
S205000A1BB81D
S205000A1C03D1
S205000A1D755E
S205000A1EA32F
S205000A1F00D1
S205000A20933D
S205000A21953A
S205000A2217B7
S205000A2300CD
S205000A249339
S205000A259635
S205000A263793
S205000A2700C9
S205000A2813B5
S205000A2906C1
S205000A2A685E
S205000A2B00C5
S205000A2CB311
S205000A2D863D
S205000A2ED5ED
S205000A2F00C1
S205000A3013AD
S205000A3105BA
S205000A3205B9
S205000A3303BA
S205000A34DBE1
S205000A353685
S205000A36D6E4
S205000A378831
S205000A3813A5
S205000A397542
S205000A3AF5C1
S205000A3B0FA6
S205000A3C3381
S205000A3D882B
S205000A3ED7DB
S205000A3F00B1
S205000A40931D
S205000A4109A6
S205000A4207A7
S205000A4300AD
S205000A44AB01
S205000A450F9C
S205000A46A703
S205000A47FEAB
S205000A48E3C5
S205000A491295
S205000A4A089E
S205000A4BFAAB
S205000A4C6341
S205000A4D0E95
S205000A4E0E94
S205000A4F227F
S205000A50633D
S205000A510A95
S205000A52049A
S205000A53128B
S205000A549309
S205000A55F7A4
S205000A562476
S205000A570099
S205000A586335
S205000A598611
S205000A5A078F
S205000A5B1283
S205000A5C1381
S205000A5D058E
S205000A5ED0C2
S205000A5F028F
S205000A60137D
S205000A61048B
S205000A62F49A
S205000A63FF8E
S205000A64EF9D
S205000A65008B
S205000A6690FA
S205000A675C2D
S205000A681375
S205000A6989FE
S205000A6A097D
S205000A6B0085
S205000A6C0381
S205000A6DCAB9
S205000A6E0979
S205000A6F0081
S205000A7093ED
S205000A710A75
S205000A72106E
S205000A73007D
S205000A746319
S205000A755C1F
S205000A7680FA
S205000A770E6B
S205000A786315
S205000A790C6B
S205000A7A0A6C
S205000A7B1461
S205000A7C93E1
S205000A7D076C
S205000A7E1959
S205000A7F0071
S205000A80B3BD
S205000A8186E9
S205000A822747
S205000A83412C
S205000A840B61
S205000A85C7A4
S205000A861753
S205000A870069
S205000A88E385
S205000A891C4B
S205000A8A075F
S205000A8BFE67
S205000A8C1351
S205000A8D0B58
S205000A8E0062
S205000A8F0061
S205000A9063FD
S205000A91C29D
S205000A9286D8
S205000A931449
S205000A94B3A9
S205000A9589D2
S205000A961446
S205000A97C099
S205000A9893C5
S205000A99F95E
S205000A9A094D
S205000A9B0154
S205000A9CB3A1
S205000A9DB49F
S205000A9E143E
S205000A9FFC55
S205000AA093BD
S205000AA189C6
S205000AA20945
S205000AA3024B
S205000AA41339
S205000AA50447
S205000AA60B3F
S205000AA70049
S205000AA863E5
S205000AA992B5
S205000AAA0442
S205000AAB1035
S205000AAC63E1
S205000AAD5EE5
S205000AAE60E2
S205000AAF2918
S205000AB0132D
S205000AB1043B
S205000AB2F44A
S205000AB3FF3E
S205000AB41329
S205000AB585B6
S205000AB60931
S205000AB70039
S205000AB8EF49
S205000AB90037
S205000ABA50E6
S205000ABB57DE
S205000ABCE351
S205000ABD1A19
S205000ABE042E
S205000ABFFE33
S205000AC063CD
S205000AC10E21
S205000AC20A24
S205000AC3022B
S205000AC49399
S205000AC50427
S205000AC61911
S205000AC70029
S205000AC81315
S205000AC90522
S205000ACA0A1C
S205000ACB0025
S205000ACC33F1
S205000ACD091A
S205000ACE2BF7
S205000ACF41E0
S205000AD0EF31
S205000AD1001F
S205000AD2D04E
S205000AD355C8
S205000AD433E9
S205000AD50A11
S205000AD69981
S205000AD70019
S205000AD80B0D
S205000AD9C552
S205000ADA1402
S205000ADB0015
S205000ADCE331
S205000ADD1AF9
S205000ADE050D
S205000ADFFE13
S205000AE063AD
S205000AE15CB3
S205000AE2808E
S205000AE322EB
S205000AE49379
S205000AE50407
S205000AE60406
S205000AE70009
S205000AE89375
S205000AE98483
S205000AEAF412
S205000AEBFF06
S205000AEC13F1
S205000AED857E
S205000AEE09F9
S205000AEF0001
S205000AF0EF11
S205000AF100FF
S205000AF2D02E
S205000AF353AA
S205000AF4E319
S205000AF59A61
S205000AF604F6
S205000AF7FEFB
S205000AF833C5
S205000AF90BEC
S205000AFA8A6C
S205000AFB00F5
S205000AFC33C1
S205000AFD856E
S205000AFE6A88
S205000AFF01F0
S205000B00836C
S205000B0120CE
S205000B02C12C
S205000B0303E9
S205000B0403E8
S205000B0524C6
S205000B068168
S205000B0703E5
S205000B088364
S205000B0924C2
S205000B0A41A4
S205000B0B03E1
S205000B0C03E0
S205000B0D29B9
S205000B0E01E0
S205000B0F03DD
S205000B10835C
S205000B1129B5
S205000B12C11C
S205000B1302DA
S205000B1403D8
S205000B152AB0
S205000B168158
S205000B1702D6
S205000B188354
S205000B192AAC
S205000B1A4194
S205000B1B02D2
S205000B1C03D0
S205000B1D2BA7
S205000B1E01D0
S205000B1F02CE
S205000B2013BC
S205000B2101CD
S205000B2201CC
S205000B2304C8
S205000B246764
S205000B25804A
S205000B2600C9
S205000B2700C8
S205000B286364
S205000B2900C6
S205000B2A05C0
S205000B2B20A4
S205000B2C9330
S205000B2D06BC
S205000B2EE1E0
S205000B2F01BF
S205000B30932C
S205000B318737
S205000B326756
S205000B33FCC0
S205000B3413A8
S205000B3506B4
S205000B369029
S205000B3700B8
S205000B383384
S205000B39377F
S205000B3A486D
S205000B3BF6BE
S205000B3C3380
S205000B3D852D
S205000B3EE7CA
S205000B3F00B0
S205000B40139C
S205000B415856
S205000B424865
S205000B4300AC
S205000B441398
S205000B458921
S205000B4606A3
S205000B4700A8
S205000B486344
S205000B494462
S205000B4AE6BF
S205000B4B00A4
S205000B4C1390
S205000B4D059D
S205000B4E079A
S205000B4F00A0
S205000B50138C
S205000B510599
S205000B520598
S205000B530399
S205000B541388
S205000B557525
S205000B56F5A4
S205000B570F89
S205000B58ABEC
S205000B598F07
S205000B5AA6EF
S205000B5BFE96
S205000B5CE3B0
S205000B5D1E74
S205000B5E0889
S205000B5FFC94
S205000B60137C
S205000B610A84
S205000B620588
S205000B63008C
S205000B6493F8
S205000B650A80
S205000B660089
S205000B670088
S205000B68E3A4
S205000B69483E
S205000B6A8005
S205000B6BF094
S205000B6CB3D0
S205000B6DB4CE
S205000B6E146D
S205000B6FFC84
S205000B70631C
S205000B7180FE
S205000B720479
S205000B731864
S205000B7493E8
S205000B750971
S205000B760079
S205000B770276
S205000B781364
S205000B790B6B
S205000B7A0075
S205000B7B0074
S205000B7CE390
S205000B7D145E
S205000B7E0A67
S205000B7FF47C
S205000B806F00
S205000B81F07E
S205000B82DF8E
S205000B83F775
S205000B8493D8
S205000B850763
S205000B86D099
S205000B870266
S205000B881354
S205000B8989DD
S205000B8AF96C
S205000B8BFF65
S205000B8CA3C0
S205000B8D8FD3
S205000B8EF968
S205000B8FFE62
S205000B90134C
S205000B910A54
S205000B92D08D
S205000B93025A
S205000B9493C8
S205000B950A50
S205000B960059
S205000B970058
S205000B98E374
S205000B994214
S205000B9A80D5
S205000B9BEE66
S205000B9CB3A0
S205000B9DB49E
S205000B9E143D
S205000B9FFC54
S205000BA093BC
S205000BA10945
S205000BA2004D
S205000BA3024A
S205000BA493B8
S205000BA50A40
S205000BA60049
S205000BA70048
S205000BA863E4
S205000BA980C6
S205000BAA0441
S205000BAB1A2A
S205000BAC63E0
S205000BAD0A38
S205000BAE0A37
S205000BAF162A
S205000BB0132C
S205000BB10B33
S205000BB2003D
S205000BB3003C
S205000BB46FCC
S205000BB5F04A
S205000BB61F1A
S205000BB7F147
S205000BB81324
S205000BB90A2C
S205000BBA0035
S205000BBB0034
S205000BBC1320
S205000BBD0929
S205000BBEF140
S205000BBF012F
S205000BC0E34C
S205000BC15ED0
S205000BC280AD
S205000BC3FC30
S205000BC41318
S205000BC50A20
S205000BC60029
S205000BC70028
S205000BC89394
S205000BC90A1C
S205000BCA0025
S205000BCB0024
S205000BCC1310
S205000BCD0919
S205000BCEF130
S205000BCF011F
S205000BD0938C
S205000BD10618
S205000BD2001D
S205000BD3001C
S205000BD433E8
S205000BD50B0F
S205000BD6D445
S205000BD740D8
S205000BD86FA8
S205000BD9F026
S205000BDADF36
S205000BDBEB29
S205000BDC9380
S205000BDD070B
S205000BDE0011
S205000BDF030D
S205000BE023EC
S205000BE1000E
S205000BE2F11C
S205000BE3000C
S205000BE4A368
S205000BE5000A
S205000BE60108
S205000BE70008
S205000BE863A4
S205000BE95AAC
S205000BEAD035
S205000BEB0CF8
S205000BEC9370
S205000BED09F9
S205000BEE11F0
S205000BEF0000
S205000BF013EC
S205000BF18777
S205000BF209F4
S205000BF300FC
S205000BF49368
S205000BF507F3
S205000BF600F9
S205000BF700F8
S205000BF88B6C
S205000BF946B0
S205000BFA17DE
S205000BFB00F4
S205000BFC9360
S205000BFD876B
S205000BFE17DA
S205000BFF00F0
S205000C00E30B
S205000C019C51
S205000C0206E6
S205000C03FEED
S205000C046387
S205000C05C821
S205000C068761
S205000C070CDB
S205000C0813D3
S205000C0904E1
S205000C0A00E4
S205000C0B00E3
S205000C0C33AF
S205000C0D8A57
S205000C0E14CC
S205000C0FC01F
S205000C1013CB
S205000C117A63
S205000C120AD2
S205000C1301DA
S205000C14B327
S205000C15B425
S205000C1614C4
S205000C17FCDB
S205000C1813C3
S205000C190ACB
S205000C1A0ACA
S205000C1B02D1
S205000C1C13BF
S205000C1D09C8
S205000C1E00D0
S205000C1F00CF
S205000C20636B
S205000C21923B
S205000C2204C8
S205000C2302C9
S205000C249337
S205000C2504C5
S205000C2604C4
S205000C2700C7
S205000C286363
S205000C295C69
S205000C2A8044
S205000C2B10B3
S205000C2C932F
S205000C2D843D
S205000C2EF4CC
S205000C2FFFC0
S205000C3013AB
S205000C3105B8
S205000C320AB2
S205000C3300BB
S205000C34EFCB
S205000C3500B9
S205000C369028
S205000C373F78
S205000C38E3D3
S205000C399A1B
S205000C3A04B0
S205000C3BFEB5
S205000C3C139F
S205000C3D09A8
S205000C3E04AC
S205000C3F00AF
S205000C40139B
S205000C418429
S205000C4204A8
S205000C4300AB
S205000C449317
S205000C458425
S205000C46099F
S205000C4700A7
S205000C481393
S205000C4905A0
S205000C4A00A4
S205000C4B03A0
S205000C4C6F33
S205000C4D00A1
S205000C4E8020
S205000C4F009F
S205000C50138B
S205000C518914
S205000C520A92
S205000C53009B
S205000C54EFAB
S205000C550099
S205000C569008
S205000C573D5A
S205000C580B8B
S205000C59C5D0
S205000C5A1480
S205000C5B0093
S205000C5C93FF
S205000C5D0A87
S205000C5E1977
S205000C5F008F
S205000C60E3AB
S205000C611875
S205000C620587
S205000C63FE8D
S205000C646327
S205000C655A2F
S205000C668008
S205000C670C7B
S205000C6893F3
S205000C690481
S205000C6A0480
S205000C6B0083
S205000C6C93EF
S205000C6D84FD
S205000C6EF48C
S205000C6FFF80
S205000C70136B
S205000C710578
S205000C720A72
S205000C73007B
S205000C74EF8B
S205000C750079
S205000C7690E8
S205000C773B3C
S205000C78E393
S205000C799ADB
S205000C7A0470
S205000C7BFE75
S205000C7C333F
S205000C7D046D
S205000C7E89E7
S205000C7F006F
S205000C80135B
S205000C810568
S205000C821458
S205000C83006B
S205000C846FFB
S205000C85F079
S205000C86DF89
S205000C87E780
S205000C881353
S205000C890A5B
S205000C8A055F
S205000C8B0063
S205000C8C134F
S205000C8D89D8
S205000C8E0957
S205000C8F005F
S205000C9093CB
S205000C910A53
S205000C92005C
S205000C93005B
S205000C946FEB
S205000C95F069
S205000C965FF9
S205000C97ED6A
S205000C9863F3
S205000C994213
S205000C9A054F
S205000C9B064D
S205000C9CA3AF
S205000C9D0F42
S205000C9E014F
S205000C9F004F
S205000CA0133B
S205000CA10E3F
S205000CA2004C
S205000CA3004B
S205000CA4E367
S205000CA51A2F
S205000CA60543
S205000CA7D275
S205000CA8E363
S205000CA94EF7
S205000CAAD074
S205000CABF053
S205000CAC132F
S205000CAD0A37
S205000CAE0040
S205000CAF003F
S205000CB093AB
S205000CB10A33
S205000CB2003C
S205000CB3003B
S205000CB41327
S205000CB50930
S205000CB6F147
S205000CB70136
S205000CB86FC7
S205000CB9F045
S205000CBA5FD5
S205000CBBEB48
S205000CBCB37F
S205000CBD34FD
S205000CBE1719
S205000CBFFC33
S205000CC063CB
S205000CC18E9F
S205000CC20428
S205000CC3002B
S205000CC41317
S205000CC50A1F
S205000CC60028
S205000CC70225
S205000CC81313
S205000CC9091C
S205000CCA0024
S205000CCB0023
S205000CCC938F
S205000CCD0918
S205000CCE110F
S205000CCF001F
S205000CD06FAF
S205000CD1F02D
S205000CD25FBD
S205000CD3F724
S205000CD433E7
S205000CD50415
S205000CD6F424
S205000CD740D7
S205000CD86FA7
S205000CD9F025
S205000CDA5FB5
S205000CDBF320
S205000CDC937F
S205000CDD040D
S205000CDE040C
S205000CDF000F
S205000CE013FB
S205000CE10A03
S205000CE2000C
S205000CE30209
S205000CE413F7
S205000CE50405
S205000CE60008
S205000CE70007
S205000CE89373
S205000CE909FC
S205000CEA11F3
S205000CEB0003
S205000CEC6F93
S205000CEDF011
S205000CEE1FE1
S205000CEFF50A
S205000CF0936B
S205000CF109F4
S205000CF200FC
S205000CF302F9
S205000CF413E7
S205000CF50BEE
S205000CF600F8
S205000CF700F7
S205000CF86F87
S205000CF9F005
S205000CFA9F55
S205000CFBDC17
S205000CFC33BF
S205000CFD08E9
S205000CFEA050
S205000CFF40AF
S205000D00A34A
S205000D010FDD
S205000D0201EA
S205000D0300EA
S205000D0413D6
S205000D050EDA
S205000D0610D7
S205000D0700E6
S205000D089352
S205000D0909DB
S205000D0AF1F2
S205000D0B01E1
S205000D0CE3FE
S205000D0D16CA
S205000D0E08D7
S205000D0FCC12
S205000D10E3FA
S205000D110AD2
S205000D1204D7
S205000D13E6F4
S205000D146F6A
S205000D15F0E8
S205000D161FB8
S205000D17D402
S205000D1813C2
S205000D190BC9
S205000D1A0AC9
S205000D1B00D2
S205000D1C6F62
S205000D1DF0E0
S205000D1E1FB0
S205000D1FDEF0
S205000D2013BA
S205000D210AC2
S205000D2200CB
S205000D2300CA
S205000D246F5A
S205000D25F0D8
S205000D26DFE8
S205000D27DBEB
S205000D2813B2
S205000D290ABA
S205000D2A00C3
S205000D2B00C2
S205000D2C13AE
S205000D2D09B7
S205000D2EF1CE
S205000D2F01BD
S205000D30932A
S205000D310AB2
S205000D3200BB
S205000D3300BA
S205000D346F4A
S205000D35F0C8
S205000D365F58
S205000D37E3D3
S205000D3813A2
S205000D39852F
S205000D3A0AA9
S205000D3B00B2
S205000D3C6F42
S205000D3DF0C0
S205000D3E5F50
S205000D3FDCD2
S205000D40139A
S205000D4104A8
S205000D4200AB
S205000D4300AA
S205000D446F3A
S205000D45F0B8
S205000D469F08
S205000D47EFB7
S205000D481392
S205000D490B99
S205000D4A00A3
S205000D4B00A2
S205000D4C6F32
S205000D4DF0B0
S205000D4E5F40
S205000D4FD7C7
S205000D50138A
S205000D51019B
S205000D52019A
S205000D53F6A4
S205000D542376
S205000D552870
S205000D562176
S205000D57078F
S205000D582372
S205000D592470
S205000D5A4152
S205000D5B078B
S205000D5C236E
S205000D5D2C64
S205000D5E810E
S205000D5F0589
S205000D60236A
S205000D612E5E
S205000D62117A
S205000D630684
S205000D642366
S205000D652C5C
S205000D668106
S205000D670680
S205000D682362
S205000D692A5A
S205000D6A91F2
S205000D6B067C
S205000D6C235E
S205000D6D265A
S205000D6E314E
S205000D6F0777
S205000D70235A
S205000D71225A
S205000D72512A
S205000D730773
S205000D742356
S205000D752058
S205000D766116
S205000D77076F
S205000D782352
S205000D792E46
S205000D7A7102
S205000D7B056D
S205000D7C234E
S205000D7D2A46
S205000D7E91DE
S205000D7F0569
S205000D80234A
S205000D812844
S205000D82A1CA
S205000D830565
S205000D842346
S205000D852642
S205000D86B1B6
S205000D870561
S205000D882342
S205000D892242
S205000D8AB1B2
S205000D8B085A
S205000D8C233E
S205000D8D243C
S205000D8EC19E
S205000D8F0856
S205000D90233A
S205000D912636
S205000D92D18A
S205000D930852
S205000D942336
S205000D952830
S205000D96E176
S205000D97084E
S205000D982332
S205000D992A2A
S205000D9AF162
S205000D9B084A
S205000D9C232E
S205000D9D2C24
S205000D9E014E
S205000D9F0945
S205000DA0232A
S205000DA12E1E
S205000DA2113A
S205000DA30941
S205000DA41336
S205000DA50C3C
S205000DA60542
S205000DA70046
S205000DA80342
S205000DA945FF
S205000DAA053E
S205000DAB0042
S205000DAC132E
S205000DAD0A36
S205000DAE41FE
S205000DAF0836
S205000DB0231A
S205000DB12E0E
S205000DB241FA
S205000DB30139
S205000DB41326
S205000DB5092F
S205000DB60037
S205000DB70036
S205000DB863D2
S205000DB90A2A
S205000DBA052E
S205000DBB0230
S205000DBC939E
S205000DBD0927
S205000DBE50DF
S205000DBF022C
S205000DC0131A
S205000DC10B21
S205000DC2D05B
S205000DC30228
S205000DC49396
S205000DC50424
S205000DC60027
S205000DC70323
S205000DC81312
S205000DC90420
S205000DCA9093
S205000DCB0022
S205000DCC938E
S205000DCD0A16
S205000DCE30EF
S205000DCF0717
S205000DD063BA
S205000DD10E0E
S205000DD235E6
S205000DD30515
S205000DD4EF2A
S205000DD50018
S205000DD69087
S205000DD725F1
S205000DD81302
S205000DD9090B
S205000DDA19FA
S205000DDB0012
S205000DDC937E
S205000DDD0B05
S205000DDE0C03
S205000DDF000E
S205000DE0030A
S205000DE1C547
S205000DE21BF0
S205000DE3000A
S205000DE413F6
S205000DE58C7C
S205000DE61BEC
S205000DE70006
S205000DE8E322
S205000DE914F0
S205000DEA05FE
S205000DEBFE04
S205000DEC837E
S205000DED20E0
S205000DEEC13E
S205000DEF07F7
S205000DF013EA
S205000DF105F7
S205000DF209F2
S205000DF300FA
S205000DF403F6
S205000DF524D4
S205000DF68176
S205000DF707EF
S205000DF88372
S205000DF924D0
S205000DFA41B2
S205000DFB07EB
S205000DFC03EE
S205000DFD29C7
S205000DFE01EE
S205000DFF07E7
S205000E008369
S205000E0129C2
S205000E02C129
S205000E0306E3
S205000E0403E5
S205000E052ABD
S205000E068165
S205000E0706DF
S205000E088361
S205000E092AB9
S205000E0A41A1
S205000E0B06DB
S205000E0C03DD
S205000E0D2BB4
S205000E0E01DD
S205000E0F06D7
S205000E108359
S205000E112BB0
S205000E12C119
S205000E1305D4
S205000E1403D5
S205000E152CAB
S205000E168155
S205000E1705D0
S205000E188351
S205000E192CA7
S205000E1A4191
S205000E1B05CC
S205000E1C03CD
S205000E1D2DA2
S205000E1E01CD
S205000E1F05C8
S205000E208349
S205000E212D9E
S205000E22C109
S205000E2304C5
S205000E2413B5
S205000E2501C6
S205000E2601C5
S205000E270ABB
S205000E28675D
S205000E298043
S205000E2A00C2
S205000E2B00C1
S205000E2C833D
S205000E2D4778
S205000E2E1CA2
S205000E2F00BD
S205000E309329
S205000E310BB0
S205000E321C9E
S205000E3300B9
S205000E34E3D5
S205000E358C2B
S205000E3607AF
S205000E37FABB
S205000E386351
S205000E398231
S205000E3A377B
S205000E3B159C
S205000E3C139D
S205000E3D07A8
S205000E3E00AE
S205000E3F00AD
S205000E406349
S205000E418625
S205000E426743
S205000E431396
S205000E446345
S205000E459E09
S205000E46970F
S205000E4700A5
S205000E489311
S205000E49861D
S205000E4A1B87
S205000E4B00A1
S205000E4C831D
S205000E4DC7D8
S205000E4E0698
S205000E4F009D
S205000E509309
S205000E518B10
S205000E520694
S205000E530099
S205000E543365
S205000E554750
S205000E56177F
S205000E57C0D5
S205000E589301
S205000E59860D
S205000E5A167C
S205000E5B0091
S205000E5CE3AD
S205000E5D8807
S205000E5E97F7
S205000E5FFE8F
S205000E6093F9
S205000E618506
S205000E620783
S205000E63FD8C
S205000E6493F5
S205000E65F691
S205000E66F591
S205000E670F76
S205000E686321
S205000E696023
S205000E6AD4AE
S205000E6B225F
S205000E6C136D
S205000E6D85FA
S205000E6E1B63
S205000E6F007D
S205000E701369
S205000E710C6F
S205000E72007A
S205000E730079
S205000E741365
S205000E751661
S205000E761C5A
S205000E770075
S205000E7893E1
S205000E790B68
S205000E7A056D
S205000E7B0071
S205000E7C135D
S205000E7D1C53
S205000E7E3C32
S205000E7F006D
S205000E808BE1
S205000E814724
S205000E821555
S205000E830069
S205000E843335
S205000E850C5B
S205000E8686E0
S205000E870164
S205000E883331
S205000E898CD7
S205000E8A85DD
S205000E8B0160
S205000E8C93CD
S205000E8D85DA
S205000E8E0757
S205000E8FFD60
S205000E9093C9
S205000E91F665
S205000E92F565
S205000E930F4A
S205000E94E375
S205000E9570E7
S205000E96D482
S205000E97FE57
S205000E9863F1
S205000E9986CD
S205000E9A57FB
S205000E9B0F42
S205000E9C93BD
S205000E9D0649
S205000E9E400E
S205000E9F0647
S205000EA063E9
S205000EA182C9
S205000EA2D773
S205000EA31C2D
S205000EA493B5
S205000EA50641
S205000EA650F6
S205000EA7073E
S205000EA863E1
S205000EA984BF
S205000EAAD76B
S205000EAB1E23
S205000EAC93AD
S205000EAD0639
S205000EAE80BE
S205000EAF0736
S205000EB063D9
S205000EB184B7
S205000EB2D763
S205000EB32217
S205000EB493A5
S205000EB50631
S205000EB680B6
S205000EB70530
S205000EB863D1
S205000EB98EA5
S205000EBAD75B
S205000EBB2E03
S205000EBC939D
S205000EBD0629
S205000EBE30FE
S205000EBF0627
S205000EC0E349
S205000EC1909B
S205000EC2D753
S205000EC3F237
S205000EC483A5
S205000EC54DDA
S205000EC60A1C
S205000EC70025
S205000EC81311
S205000EC90A19
S205000ECA4AD8
S205000ECB0021
S205000ECC23FD
S205000ECD22FD
S205000ECE41DD
S205000ECF011C
S205000ED023F9
S205000ED10C0F
S205000ED2B169
S205000ED30118
S205000ED4A375
S205000ED50C0B
S205000ED60115
S205000ED70015
S205000ED863B1
S205000ED9060D
S205000EDA0C06
S205000EDB4CC5
S205000EDC63AD
S205000EDD828D
S205000EDE0D01
S205000EDF48C5
S205000EE09379
S205000EE10605
S205000EE29179
S205000EE30108
S205000EE49375
S205000EE50700
S205000EE60006
S205000EE70005
S205000EE80BF9
S205000EE9C63D
S205000EEA16EC
S205000EEB0001
S205000EEC936D
S205000EED8778
S205000EEE17E7
S205000EEF00FD
S205000EF0E319
S205000EF11CDF
S205000EF206F4
S205000EF3FEFB
S205000EF49365
S205000EF50CEB
S205000EF600F6
S205000EF700F5
S205000EF86391
S205000EF9C62D
S205000EFA876B
S205000EFB47AA
S205000EFCB33D
S205000EFD07E8
S205000EFE17D7
S205000EFFC02D
S205000F0013D8
S205000F01FAF0
S205000F0207E2
S205000F0301E7
S205000F0433B4
S205000F0537AF
S205000F0617CE
S205000F07FCE8
S205000F0813D0
S205000F090AD8
S205000F0A0AD7
S205000F0B02DE
S205000F0C13CC
S205000F0D8D51
S205000F0E0CD1
S205000F0F00DC
S205000F106378
S205000F111EBC
S205000F1207D2
S205000F134692
S205000F146374
S205000F155A7C
S205000F169045
S205000F176173
S205000F1813C0
S205000F190DC5
S205000F1AFDD4
S205000F1BFFD1
S205000F1C13BC
S205000F1D05C9
S205000F1E0AC3
S205000F1F00CC
S205000F20EFDC
S205000F2100CA
S205000F22D0F9
S205000F2310B8
S205000F24E3E4
S205000F251AAC
S205000F260DB8
S205000F27FEC6
S205000F286360
S205000F298C36
S205000F2A0DB4
S205000F2B02BE
S205000F2C13AC
S205000F2D0CB2
S205000F2E912C
S205000F2F01BB
S205000F3013A8
S205000F318535
S205000F320DAC
S205000F3300B8
S205000F34EFC8
S205000F3500B6
S205000F369025
S205000F370FA5
S205000F388B28
S205000F394D65
S205000F3A1C95
S205000F3B00B0
S205000F3C931C
S205000F3D8C22
S205000F3E1C91
S205000F3F00AC
S205000F40E3C8
S205000F419812
S205000F420D9C
S205000F43FEAA
S205000F446344
S205000F455E48
S205000F46A005
S205000F4701A3
S205000F481390
S205000F490C96
S205000F4A0D94
S205000F4B00A0
S205000F4C138C
S205000F4D0C92
S205000F4EFCA1
S205000F4FFF9D
S205000F501388
S205000F510595
S205000F520A8F
S205000F530098
S205000F54EFA8
S205000F550096
S205000F569005
S205000F570D87
S205000F58E3B0
S205000F591A78
S205000F5A0C85
S205000F5BFE92
S205000F5CB3DC
S205000F5D0C82
S205000F5E9DF0
S205000F5F018B
S205000F603358
S205000F610981
S205000F6299F0
S205000F630187
S205000F640384
S205000F652A5C
S205000F664144
S205000F670084
S205000F686F14
S205000F69F092
S205000F6A9FE2
S205000F6BE799
S205000F6C83FC
S205000F6D4737
S205000F6E2C51
S205000F6F007C
S205000F7093E8
S205000F710B6F
S205000F722C4D
S205000F730078
S205000F741364
S205000F75076F
S205000F761065
S205000F770074
S205000F786F04
S205000F79F082
S205000F7ADF92
S205000F7BEC84
S205000F7C135C
S205000F7D8CE2
S205000F7E0B62
S205000F7F006C
S205000F806FFC
S205000F81F07A
S205000F825F0A
S205000F83E583
S205000F840364
S205000F852D39
S205000F860A5B
S205000F870064
S205000F881350
S205000F890A58
S205000F8A4A17
S205000F8B0060
S205000F8C233C
S205000F8D243A
S205000F8E411C
S205000F8F015B
S205000F9063F8
S205000F910852
S205000F920D4C
S205000F933028
S205000F9463F4
S205000F950056
S205000F960C49
S205000F971242
S205000F980350
S205000F99450D
S205000F9A0D44
S205000F9B0050
S205000F9C63EC
S205000F9D0E40
S205000F9E0548
S205000F9F0844
S205000FA093B8
S205000FA10743
S205000FA21D2C
S205000FA30048
S205000FA43314
S205000FA586C0
S205000FA6A79E
S205000FA74103
S205000FA88BB8
S205000FA9C67C
S205000FAA172A
S205000FAB0040
S205000FACE35C
S205000FAD9CA2
S205000FAE0637
S205000FAFFE3E
S205000FB093A8
S205000FB10D2D
S205000FB20039
S205000FB30038
S205000FB463D4
S205000FB544F2
S205000FB686AF
S205000FB7092B
S205000FB8B380
S205000FB90C26
S205000FBA171A
S205000FBBC070
S205000FBC939C
S205000FBDFC32
S205000FBE0C21
S205000FBF012B
S205000FC033F8
S205000FC137F3
S205000FC21712
S205000FC3FC2C
S205000FC49394
S205000FC58C9A
S205000FC60C19
S205000FC70222
S205000FC863C0
S205000FC9160C
S205000FCA071A
S205000FCB0818
S205000FCC63BC
S205000FCD8E90
S205000FCE0D10
S205000FCF001C
S205000FD01308
S205000FD18C8E
S205000FD20D0C
S205000FD30018
S205000FD41304
S205000FD50C0A
S205000FD6FC19
S205000FD7FF15
S205000FD81300
S205000FD9858D
S205000FDA0C05
S205000FDB0010
S205000FDCEF20
S205000FDD000E
S205000FDE10FD
S205000FDF0507
S205000FE0E328
S205000FE11AF0
S205000FE20CFD
S205000FE3FE0A
S205000FE40304
S205000FE545C1
S205000FE60DF8
S205000FE70004
S205000FE823E0
S205000FE922E0
S205000FEA0100
S205000FEB0000
S205000FEC639C
S205000FED00FE
S205000FEE05F8
S205000FEF04F8
S205000FF013E8
S205000FF10AF0
S205000FF21DDC
S205000FF300F8
S205000FF433C4
S205000FF58C6A
S205000FF6AD48
S205000FF741B3
S205000FF8EF04
S205000FF900F2
S205000FFA50A1
S205000FFB03ED
S205000FFCB33C
S205000FFD0DE1
S205000FFE4CA1
S205000FFF01EB
S2050010000BDF
S20500100145A4
S2050010021ACE
S20500100300E7
S205001004E303
S2050010051ACB
S20500100605DF
S205001007FEE5
S205001008835F
S20500100927BA
S20500100A419F
S20500100B00DF
S20500100C637B
S20500100D805D
S20500100E07D5
S20500100F02D9
S20500101013C7
S2050010118C4D
S20500101207D1
S20500101300D7
S20500101413C3
S2050010150CC9
S205001016FCD8
S205001017FFD4
S20500101813BF
S205001019854C
S20500101A0CC4
S20500101B00CF
S20500101CEFDF
S20500101D00CD
S20500101E10BC
S20500101F01CA
S205001020E3E7
S2050010211AAF
S2050010220CBC
S205001023FEC9
S2050010248343
S205001025279E
S2050010264183
S20500102700C3
S205001028B30F
S2050010298D34
S20500102AB709
S20500102B01BE
S20500102C338B
S20500102D09B4
S20500102EB903
S20500102F01BA
S20500103003B7
S2050010312A8F
S2050010328137
S20500103300B7
S2050010346F47
S205001035F0C5
S205001036DFD5
S205001037DAD9
S205001038139F
S20500103906AB
S20500103A00B0
S20500103B00AF
S20500103CB3FB
S20500103D0CA1
S20500103E1795
S20500103FC0EB
S2050010409317
S205001041FCAD
S2050010420C9C
S20500104301A6
S2050010443373
S205001045376E
S205001046178D
S205001047FCA7
S205001048B3EF
S2050010490D94
S20500104ACCD4
S20500104B405F
S20500104C930B
S20500104D8C11
S20500104E0C90
S20500104F0299
S205001050E3B7
S2050010510E8B
S2050010520791
S205001053F6A1
S2050010542373
S2050010552273
S205001056B1E3
S2050010570192
S20500105893FF
S2050010590D84
S20500105A0090
S20500105B008F
S20500105CE3AB
S20500105D1A73
S20500105E0587
S20500105FF893
S2050010606F1B
S205001061F099
S2050010629FE9
S205001063FA8D
S2050010640383
S2050010652560
S2050010660A7A
S2050010670083
S20500106893EF
S205001069077A
S20500106A1070
S20500106B0679
S20500106C93EB
S20500106D0677
S20500106E0C70
S20500106F007B
S2050010701367
S2050010710673
S2050010721068
S2050010730077
S20500107493E3
S2050010750570
S205001076A0D4
S2050010770073
S205001078EF83
S205001079F081
S20500107A1F51
S20500107B91DE
S20500107C135B
S20500107D0A63
S20500107E4A22
S20500107F006B
S2050010803337
S2050010810960
S205001082A9BF
S2050010830067
S2050010846FF7
S205001085F075
S205001086DF85
S205001087D58E
S205001088134F
S2050010890C55
S20500108A0060
S20500108B005F
S20500108C6FEF
S20500108DF06D
S20500108EDF7D
S20500108FE07B
S2050010900357
S2050010912534
S2050010920A4E
S2050010930057
S20500109493C3
S205001095074E
S2050010961044
S205001097064D
S20500109893BF
S205001099064B
S20500109A0C44
S20500109B004F
S20500109C133B
S20500109D0647
S20500109E004C
S20500109F004B
S2050010A093B7
S2050010A10544
S2050010A2A0A8
S2050010A30047
S2050010A4EF57
S2050010A5F055
S2050010A65FE5
S2050010A78EB5
